{
  "contractName": "Legi",
  "abi": [
    {
      "inputs": [],
      "stateMutability": "nonpayable",
      "type": "constructor"
    },
    {
      "anonymous": false,
      "inputs": [
        {
          "indexed": true,
          "internalType": "address",
          "name": "owner",
          "type": "address"
        },
        {
          "indexed": true,
          "internalType": "address",
          "name": "spender",
          "type": "address"
        },
        {
          "indexed": false,
          "internalType": "uint256",
          "name": "value",
          "type": "uint256"
        }
      ],
      "name": "Approval",
      "type": "event"
    },
    {
      "anonymous": false,
      "inputs": [
        {
          "indexed": false,
          "internalType": "address",
          "name": "",
          "type": "address"
        },
        {
          "indexed": false,
          "internalType": "uint256",
          "name": "",
          "type": "uint256"
        }
      ],
      "name": "Received",
      "type": "event"
    },
    {
      "anonymous": false,
      "inputs": [
        {
          "indexed": true,
          "internalType": "bytes32",
          "name": "role",
          "type": "bytes32"
        },
        {
          "indexed": true,
          "internalType": "bytes32",
          "name": "previousAdminRole",
          "type": "bytes32"
        },
        {
          "indexed": true,
          "internalType": "bytes32",
          "name": "newAdminRole",
          "type": "bytes32"
        }
      ],
      "name": "RoleAdminChanged",
      "type": "event"
    },
    {
      "anonymous": false,
      "inputs": [
        {
          "indexed": true,
          "internalType": "bytes32",
          "name": "role",
          "type": "bytes32"
        },
        {
          "indexed": true,
          "internalType": "address",
          "name": "account",
          "type": "address"
        },
        {
          "indexed": true,
          "internalType": "address",
          "name": "sender",
          "type": "address"
        }
      ],
      "name": "RoleGranted",
      "type": "event"
    },
    {
      "anonymous": false,
      "inputs": [
        {
          "indexed": true,
          "internalType": "bytes32",
          "name": "role",
          "type": "bytes32"
        },
        {
          "indexed": true,
          "internalType": "address",
          "name": "account",
          "type": "address"
        },
        {
          "indexed": true,
          "internalType": "address",
          "name": "sender",
          "type": "address"
        }
      ],
      "name": "RoleRevoked",
      "type": "event"
    },
    {
      "anonymous": false,
      "inputs": [
        {
          "indexed": true,
          "internalType": "address",
          "name": "from",
          "type": "address"
        },
        {
          "indexed": true,
          "internalType": "address",
          "name": "to",
          "type": "address"
        },
        {
          "indexed": false,
          "internalType": "uint256",
          "name": "value",
          "type": "uint256"
        }
      ],
      "name": "Transfer",
      "type": "event"
    },
    {
      "anonymous": false,
      "inputs": [
        {
          "indexed": false,
          "internalType": "address",
          "name": "",
          "type": "address"
        },
        {
          "indexed": false,
          "internalType": "uint256",
          "name": "",
          "type": "uint256"
        }
      ],
      "name": "fallbackReceived",
      "type": "event"
    },
    {
      "anonymous": false,
      "inputs": [
        {
          "indexed": false,
          "internalType": "address",
          "name": "",
          "type": "address"
        },
        {
          "indexed": false,
          "internalType": "uint256",
          "name": "",
          "type": "uint256"
        }
      ],
      "name": "sentContractEth",
      "type": "event"
    },
    {
      "anonymous": false,
      "inputs": [
        {
          "indexed": false,
          "internalType": "address",
          "name": "",
          "type": "address"
        },
        {
          "indexed": false,
          "internalType": "uint256",
          "name": "",
          "type": "uint256"
        }
      ],
      "name": "withdrawn",
      "type": "event"
    },
    {
      "stateMutability": "payable",
      "type": "fallback"
    },
    {
      "inputs": [],
      "name": "BURNER_ROLE",
      "outputs": [
        {
          "internalType": "bytes32",
          "name": "",
          "type": "bytes32"
        }
      ],
      "stateMutability": "view",
      "type": "function"
    },
    {
      "inputs": [],
      "name": "DEFAULT_ADMIN_ROLE",
      "outputs": [
        {
          "internalType": "bytes32",
          "name": "",
          "type": "bytes32"
        }
      ],
      "stateMutability": "view",
      "type": "function"
    },
    {
      "inputs": [],
      "name": "DOMAIN_SEPARATOR",
      "outputs": [
        {
          "internalType": "bytes32",
          "name": "",
          "type": "bytes32"
        }
      ],
      "stateMutability": "view",
      "type": "function"
    },
    {
      "inputs": [],
      "name": "MINTER_ROLE",
      "outputs": [
        {
          "internalType": "bytes32",
          "name": "",
          "type": "bytes32"
        }
      ],
      "stateMutability": "view",
      "type": "function"
    },
    {
      "inputs": [],
      "name": "WITHDRAWER_ROLE",
      "outputs": [
        {
          "internalType": "bytes32",
          "name": "",
          "type": "bytes32"
        }
      ],
      "stateMutability": "view",
      "type": "function"
    },
    {
      "inputs": [
        {
          "internalType": "address",
          "name": "owner",
          "type": "address"
        },
        {
          "internalType": "address",
          "name": "spender",
          "type": "address"
        }
      ],
      "name": "allowance",
      "outputs": [
        {
          "internalType": "uint256",
          "name": "",
          "type": "uint256"
        }
      ],
      "stateMutability": "view",
      "type": "function"
    },
    {
      "inputs": [
        {
          "internalType": "address",
          "name": "spender",
          "type": "address"
        },
        {
          "internalType": "uint256",
          "name": "amount",
          "type": "uint256"
        }
      ],
      "name": "approve",
      "outputs": [
        {
          "internalType": "bool",
          "name": "",
          "type": "bool"
        }
      ],
      "stateMutability": "nonpayable",
      "type": "function"
    },
    {
      "inputs": [
        {
          "internalType": "address",
          "name": "account",
          "type": "address"
        }
      ],
      "name": "balanceOf",
      "outputs": [
        {
          "internalType": "uint256",
          "name": "",
          "type": "uint256"
        }
      ],
      "stateMutability": "view",
      "type": "function"
    },
    {
      "inputs": [
        {
          "internalType": "uint256",
          "name": "amount",
          "type": "uint256"
        }
      ],
      "name": "burn",
      "outputs": [],
      "stateMutability": "nonpayable",
      "type": "function"
    },
    {
      "inputs": [
        {
          "internalType": "address",
          "name": "account",
          "type": "address"
        },
        {
          "internalType": "uint256",
          "name": "amount",
          "type": "uint256"
        }
      ],
      "name": "burnFrom",
      "outputs": [],
      "stateMutability": "nonpayable",
      "type": "function"
    },
    {
      "inputs": [],
      "name": "decimals",
      "outputs": [
        {
          "internalType": "uint8",
          "name": "",
          "type": "uint8"
        }
      ],
      "stateMutability": "view",
      "type": "function"
    },
    {
      "inputs": [
        {
          "internalType": "address",
          "name": "spender",
          "type": "address"
        },
        {
          "internalType": "uint256",
          "name": "subtractedValue",
          "type": "uint256"
        }
      ],
      "name": "decreaseAllowance",
      "outputs": [
        {
          "internalType": "bool",
          "name": "",
          "type": "bool"
        }
      ],
      "stateMutability": "nonpayable",
      "type": "function"
    },
    {
      "inputs": [
        {
          "internalType": "bytes32",
          "name": "role",
          "type": "bytes32"
        }
      ],
      "name": "getRoleAdmin",
      "outputs": [
        {
          "internalType": "bytes32",
          "name": "",
          "type": "bytes32"
        }
      ],
      "stateMutability": "view",
      "type": "function"
    },
    {
      "inputs": [
        {
          "internalType": "bytes32",
          "name": "role",
          "type": "bytes32"
        },
        {
          "internalType": "address",
          "name": "account",
          "type": "address"
        }
      ],
      "name": "grantRole",
      "outputs": [],
      "stateMutability": "nonpayable",
      "type": "function"
    },
    {
      "inputs": [
        {
          "internalType": "bytes32",
          "name": "role",
          "type": "bytes32"
        },
        {
          "internalType": "address",
          "name": "account",
          "type": "address"
        }
      ],
      "name": "hasRole",
      "outputs": [
        {
          "internalType": "bool",
          "name": "",
          "type": "bool"
        }
      ],
      "stateMutability": "view",
      "type": "function"
    },
    {
      "inputs": [
        {
          "internalType": "address",
          "name": "spender",
          "type": "address"
        },
        {
          "internalType": "uint256",
          "name": "addedValue",
          "type": "uint256"
        }
      ],
      "name": "increaseAllowance",
      "outputs": [
        {
          "internalType": "bool",
          "name": "",
          "type": "bool"
        }
      ],
      "stateMutability": "nonpayable",
      "type": "function"
    },
    {
      "inputs": [],
      "name": "name",
      "outputs": [
        {
          "internalType": "string",
          "name": "",
          "type": "string"
        }
      ],
      "stateMutability": "view",
      "type": "function"
    },
    {
      "inputs": [
        {
          "internalType": "address",
          "name": "owner",
          "type": "address"
        }
      ],
      "name": "nonces",
      "outputs": [
        {
          "internalType": "uint256",
          "name": "",
          "type": "uint256"
        }
      ],
      "stateMutability": "view",
      "type": "function"
    },
    {
      "inputs": [
        {
          "internalType": "address",
          "name": "owner",
          "type": "address"
        },
        {
          "internalType": "address",
          "name": "spender",
          "type": "address"
        },
        {
          "internalType": "uint256",
          "name": "value",
          "type": "uint256"
        },
        {
          "internalType": "uint256",
          "name": "deadline",
          "type": "uint256"
        },
        {
          "internalType": "uint8",
          "name": "v",
          "type": "uint8"
        },
        {
          "internalType": "bytes32",
          "name": "r",
          "type": "bytes32"
        },
        {
          "internalType": "bytes32",
          "name": "s",
          "type": "bytes32"
        }
      ],
      "name": "permit",
      "outputs": [],
      "stateMutability": "nonpayable",
      "type": "function"
    },
    {
      "inputs": [
        {
          "internalType": "bytes32",
          "name": "role",
          "type": "bytes32"
        },
        {
          "internalType": "address",
          "name": "account",
          "type": "address"
        }
      ],
      "name": "renounceRole",
      "outputs": [],
      "stateMutability": "nonpayable",
      "type": "function"
    },
    {
      "inputs": [
        {
          "internalType": "bytes32",
          "name": "role",
          "type": "bytes32"
        },
        {
          "internalType": "address",
          "name": "account",
          "type": "address"
        }
      ],
      "name": "revokeRole",
      "outputs": [],
      "stateMutability": "nonpayable",
      "type": "function"
    },
    {
      "inputs": [
        {
          "internalType": "bytes4",
          "name": "interfaceId",
          "type": "bytes4"
        }
      ],
      "name": "supportsInterface",
      "outputs": [
        {
          "internalType": "bool",
          "name": "",
          "type": "bool"
        }
      ],
      "stateMutability": "view",
      "type": "function"
    },
    {
      "inputs": [],
      "name": "symbol",
      "outputs": [
        {
          "internalType": "string",
          "name": "",
          "type": "string"
        }
      ],
      "stateMutability": "view",
      "type": "function"
    },
    {
      "inputs": [],
      "name": "totalSupply",
      "outputs": [
        {
          "internalType": "uint256",
          "name": "",
          "type": "uint256"
        }
      ],
      "stateMutability": "view",
      "type": "function"
    },
    {
      "inputs": [
        {
          "internalType": "address",
          "name": "to",
          "type": "address"
        },
        {
          "internalType": "uint256",
          "name": "amount",
          "type": "uint256"
        }
      ],
      "name": "transfer",
      "outputs": [
        {
          "internalType": "bool",
          "name": "",
          "type": "bool"
        }
      ],
      "stateMutability": "nonpayable",
      "type": "function"
    },
    {
      "inputs": [
        {
          "internalType": "address",
          "name": "from",
          "type": "address"
        },
        {
          "internalType": "address",
          "name": "to",
          "type": "address"
        },
        {
          "internalType": "uint256",
          "name": "amount",
          "type": "uint256"
        }
      ],
      "name": "transferFrom",
      "outputs": [
        {
          "internalType": "bool",
          "name": "",
          "type": "bool"
        }
      ],
      "stateMutability": "nonpayable",
      "type": "function"
    },
    {
      "stateMutability": "payable",
      "type": "receive"
    },
    {
      "inputs": [
        {
          "internalType": "address",
          "name": "to",
          "type": "address"
        },
        {
          "internalType": "uint256",
          "name": "amount",
          "type": "uint256"
        }
      ],
      "name": "mint",
      "outputs": [],
      "stateMutability": "nonpayable",
      "type": "function"
    },
    {
      "inputs": [
        {
          "internalType": "address",
          "name": "_checkBal",
          "type": "address"
        }
      ],
      "name": "getEtherBalance",
      "outputs": [
        {
          "internalType": "uint256",
          "name": "",
          "type": "uint256"
        }
      ],
      "stateMutability": "view",
      "type": "function"
    },
    {
      "inputs": [],
      "name": "contractEthBalance",
      "outputs": [
        {
          "internalType": "uint256",
          "name": "",
          "type": "uint256"
        }
      ],
      "stateMutability": "view",
      "type": "function"
    },
    {
      "inputs": [
        {
          "internalType": "address payable",
          "name": "_to",
          "type": "address"
        },
        {
          "internalType": "uint256",
          "name": "amount",
          "type": "uint256"
        }
      ],
      "name": "sendEther",
      "outputs": [],
      "stateMutability": "nonpayable",
      "type": "function"
    },
    {
      "inputs": [],
      "name": "withdrawEther",
      "outputs": [],
      "stateMutability": "nonpayable",
      "type": "function"
    }
  ],
  "bytecode": "0x6101606040527f6e71edae12b1b97f4d1f60370fef10105fa2faae0126114a169c64845d6126c9610140908152503480156200003a57600080fd5b506040518060400160405280600481526020017f5961616400000000000000000000000000000000000000000000000000000000815250806040518060400160405280600181526020017f31000000000000000000000000000000000000000000000000000000000000008152506040518060400160405280600481526020017f59616164000000000000000000000000000000000000000000000000000000008152506040518060400160405280600281526020017f594400000000000000000000000000000000000000000000000000000000000081525081600390805190602001906200012c929190620005f0565b50806004908051906020019062000145929190620005f0565b50505060008280519060200120905060008280519060200120905060007f8b73c3c69bb8fe3d512ecc4cf759cc79239f7b179b0ffacaa9a75d522b39400f90508260e081815250508161010081815250504660a08181525050620001b1818484620002cc60201b60201c565b608081815250503073ffffffffffffffffffffffffffffffffffffffff1660c08173ffffffffffffffffffffffffffffffffffffffff16815250508061012081815250505050505050506200021b336d0366e7064422fd842023400000006200030860201b60201c565b620002306000801b336200048160201b60201c565b620002627f9f2df0fed2c77648de5860a4cc508cd0818c85b8b8a1ab4ceeef8d981c8956a6336200048160201b60201c565b620002947f3c11d16cbaffd01df69ce1c404f6340ee057498f5f00246190ea54220576a848336200048160201b60201c565b620002c67f10dac8c06a04bec0b551627dad28bc00d6516b0caacd1c7b345fcdb5211334e4336200048160201b60201c565b62000909565b60008383834630604051602001620002e99594939291906200071b565b6040516020818303038152906040528051906020012090509392505050565b600073ffffffffffffffffffffffffffffffffffffffff168273ffffffffffffffffffffffffffffffffffffffff1614156200037b576040517f08c379a00000000000000000000000000000000000000000000000000000000081526004016200037290620007d9565b60405180910390fd5b6200038f600083836200057360201b60201c565b8060026000828254620003a391906200082a565b92505081905550806000808473ffffffffffffffffffffffffffffffffffffffff1673ffffffffffffffffffffffffffffffffffffffff1681526020019081526020016000206000828254620003fa91906200082a565b925050819055508173ffffffffffffffffffffffffffffffffffffffff16600073ffffffffffffffffffffffffffffffffffffffff167fddf252ad1be2c89b69c2b068fc378daa952ba7f163c4a11628f55a4df523b3ef8360405162000461919062000887565b60405180910390a36200047d600083836200057860201b60201c565b5050565b6200049382826200057d60201b60201c565b6200056f5760016005600084815260200190815260200160002060000160008373ffffffffffffffffffffffffffffffffffffffff1673ffffffffffffffffffffffffffffffffffffffff16815260200190815260200160002060006101000a81548160ff02191690831515021790555062000514620005e860201b60201c565b73ffffffffffffffffffffffffffffffffffffffff168173ffffffffffffffffffffffffffffffffffffffff16837f2f8788117e7eff1d82e926ec794901d17c78024a50270940304540a733656f0d60405160405180910390a45b5050565b505050565b505050565b60006005600084815260200190815260200160002060000160008373ffffffffffffffffffffffffffffffffffffffff1673ffffffffffffffffffffffffffffffffffffffff16815260200190815260200160002060009054906101000a900460ff16905092915050565b600033905090565b828054620005fe90620008d3565b90600052602060002090601f0160209004810192826200062257600085556200066e565b82601f106200063d57805160ff19168380011785556200066e565b828001600101855582156200066e579182015b828111156200066d57825182559160200191906001019062000650565b5b5090506200067d919062000681565b5090565b5b808211156200069c57600081600090555060010162000682565b5090565b6000819050919050565b620006b581620006a0565b82525050565b6000819050919050565b620006d081620006bb565b82525050565b600073ffffffffffffffffffffffffffffffffffffffff82169050919050565b60006200070382620006d6565b9050919050565b6200071581620006f6565b82525050565b600060a082019050620007326000830188620006aa565b620007416020830187620006aa565b620007506040830186620006aa565b6200075f6060830185620006c5565b6200076e60808301846200070a565b9695505050505050565b600082825260208201905092915050565b7f45524332303a206d696e7420746f20746865207a65726f206164647265737300600082015250565b6000620007c1601f8362000778565b9150620007ce8262000789565b602082019050919050565b60006020820190508181036000830152620007f481620007b2565b9050919050565b7f4e487b7100000000000000000000000000000000000000000000000000000000600052601160045260246000fd5b60006200083782620006bb565b91506200084483620006bb565b9250827fffffffffffffffffffffffffffffffffffffffffffffffffffffffffffffffff038211156200087c576200087b620007fb565b5b828201905092915050565b60006020820190506200089e6000830184620006c5565b92915050565b7f4e487b7100000000000000000000000000000000000000000000000000000000600052602260045260246000fd5b60006002820490506001821680620008ec57607f821691505b60208210811415620009035762000902620008a4565b5b50919050565b60805160a05160c05160e051610100516101205161014051613dfb6200096460003960006111db01526000611bb001526000611bf201526000611bd101526000611b0601526000611b5c01526000611b850152613dfb6000f3fe6080604052600436106101dc5760003560e01c806370a0823111610102578063a457c2d711610095578063d539139311610064578063d539139314610772578063d547741f1461079d578063dc45d08e146107c6578063dd62ed3e146108035761021c565b8063a457c2d7146106a6578063a9059cbb146106e3578063c1756a2c14610720578063d505accf146107495761021c565b806385f438c1116100d157806385f438c1146105e857806391d148541461061357806395d89b4114610650578063a217fddf1461067b5761021c565b806370a082311461052e5780637362377b1461056b57806379cc6790146105825780637ecebe00146105ab5761021c565b80632f2ff15d1161017a5780633950935111610149578063395093511461047457806340c10f19146104b157806342966c68146104da5780635d58ce36146105035761021c565b80632f2ff15d146103cc578063313ce567146103f55780633644e5151461042057806336568abe1461044b5761021c565b806318160ddd116101b657806318160ddd146102fc57806323b872dd14610327578063248a9ca314610364578063282c51f3146103a15761021c565b806301ffc9a71461025757806306fdde0314610294578063095ea7b3146102bf5761021c565b3661021c577f88a5966d370b9919b20f3e2c13ff65706f196a4e32cc2c12bf57088f8852587433346040516102129291906126eb565b60405180910390a1005b7fb3c31997a6804b3c509ae2d939af7825aa5ff255ee8a5e1987303012e1bbd4bd333460405161024d9291906126eb565b60405180910390a1005b34801561026357600080fd5b5061027e60048036038101906102799190612771565b610840565b60405161028b91906127b9565b60405180910390f35b3480156102a057600080fd5b506102a96108ba565b6040516102b6919061286d565b60405180910390f35b3480156102cb57600080fd5b506102e660048036038101906102e191906128e7565b61094c565b6040516102f391906127b9565b60405180910390f35b34801561030857600080fd5b5061031161096f565b60405161031e9190612927565b60405180910390f35b34801561033357600080fd5b5061034e60048036038101906103499190612942565b610979565b60405161035b91906127b9565b60405180910390f35b34801561037057600080fd5b5061038b600480360381019061038691906129cb565b6109a8565b6040516103989190612a07565b60405180910390f35b3480156103ad57600080fd5b506103b66109c8565b6040516103c39190612a07565b60405180910390f35b3480156103d857600080fd5b506103f360048036038101906103ee9190612a22565b6109ec565b005b34801561040157600080fd5b5061040a610a15565b6040516104179190612a7e565b60405180910390f35b34801561042c57600080fd5b50610435610a1e565b6040516104429190612a07565b60405180910390f35b34801561045757600080fd5b50610472600480360381019061046d9190612a22565b610a2d565b005b34801561048057600080fd5b5061049b600480360381019061049691906128e7565b610ab0565b6040516104a891906127b9565b60405180910390f35b3480156104bd57600080fd5b506104d860048036038101906104d391906128e7565b610b5a565b005b3480156104e657600080fd5b5061050160048036038101906104fc9190612a99565b610b9b565b005b34801561050f57600080fd5b50610518610baf565b6040516105259190612927565b60405180910390f35b34801561053a57600080fd5b5061055560048036038101906105509190612ac6565b610c26565b6040516105629190612927565b60405180910390f35b34801561057757600080fd5b50610580610c6e565b005b34801561058e57600080fd5b506105a960048036038101906105a491906128e7565b610dd2565b005b3480156105b757600080fd5b506105d260048036038101906105cd9190612ac6565b610df2565b6040516105df9190612927565b60405180910390f35b3480156105f457600080fd5b506105fd610e42565b60405161060a9190612a07565b60405180910390f35b34801561061f57600080fd5b5061063a60048036038101906106359190612a22565b610e66565b60405161064791906127b9565b60405180910390f35b34801561065c57600080fd5b50610665610ed1565b604051610672919061286d565b60405180910390f35b34801561068757600080fd5b50610690610f63565b60405161069d9190612a07565b60405180910390f35b3480156106b257600080fd5b506106cd60048036038101906106c891906128e7565b610f6a565b6040516106da91906127b9565b60405180910390f35b3480156106ef57600080fd5b5061070a600480360381019061070591906128e7565b611054565b60405161071791906127b9565b60405180910390f35b34801561072c57600080fd5b5061074760048036038101906107429190612b31565b611077565b005b34801561075557600080fd5b50610770600480360381019061076b9190612b9d565b611194565b005b34801561077e57600080fd5b506107876112d6565b6040516107949190612a07565b60405180910390f35b3480156107a957600080fd5b506107c460048036038101906107bf9190612a22565b6112fa565b005b3480156107d257600080fd5b506107ed60048036038101906107e89190612ac6565b611323565b6040516107fa9190612927565b60405180910390f35b34801561080f57600080fd5b5061082a60048036038101906108259190612c3f565b6113b3565b6040516108379190612927565b60405180910390f35b60007f7965db0b000000000000000000000000000000000000000000000000000000007bffffffffffffffffffffffffffffffffffffffffffffffffffffffff1916827bffffffffffffffffffffffffffffffffffffffffffffffffffffffff191614806108b357506108b28261143a565b5b9050919050565b6060600380546108c990612cae565b80601f01602080910402602001604051908101604052809291908181526020018280546108f590612cae565b80156109425780601f1061091757610100808354040283529160200191610942565b820191906000526020600020905b81548152906001019060200180831161092557829003601f168201915b5050505050905090565b6000806109576114a4565b90506109648185856114ac565b600191505092915050565b6000600254905090565b6000806109846114a4565b9050610991858285611677565b61099c858585611703565b60019150509392505050565b600060056000838152602001908152602001600020600101549050919050565b7f3c11d16cbaffd01df69ce1c404f6340ee057498f5f00246190ea54220576a84881565b6109f5826109a8565b610a0681610a016114a4565b611984565b610a108383611a21565b505050565b60006012905090565b6000610a28611b02565b905090565b610a356114a4565b73ffffffffffffffffffffffffffffffffffffffff168173ffffffffffffffffffffffffffffffffffffffff1614610aa2576040517f08c379a0000000000000000000000000000000000000000000000000000000008152600401610a9990612d52565b60405180910390fd5b610aac8282611c1c565b5050565b600080610abb6114a4565b9050610b4f818585600160008673ffffffffffffffffffffffffffffffffffffffff1673ffffffffffffffffffffffffffffffffffffffff16815260200190815260200160002060008973ffffffffffffffffffffffffffffffffffffffff1673ffffffffffffffffffffffffffffffffffffffff16815260200190815260200160002054610b4a9190612da1565b6114ac565b600191505092915050565b7f9f2df0fed2c77648de5860a4cc508cd0818c85b8b8a1ab4ceeef8d981c8956a6610b8c81610b876114a4565b611984565b610b968383611cfe565b505050565b610bac610ba66114a4565b82611e5e565b50565b60008073ffffffffffffffffffffffffffffffffffffffff163373ffffffffffffffffffffffffffffffffffffffff161415610c20576040517f08c379a0000000000000000000000000000000000000000000000000000000008152600401610c1790612e43565b60405180910390fd5b47905090565b60008060008373ffffffffffffffffffffffffffffffffffffffff1673ffffffffffffffffffffffffffffffffffffffff168152602001908152602001600020549050919050565b7f10dac8c06a04bec0b551627dad28bc00d6516b0caacd1c7b345fcdb5211334e4610ca081610c9b6114a4565b611984565b600047905060008111610ce8576040517f08c379a0000000000000000000000000000000000000000000000000000000008152600401610cdf90612ed5565b60405180910390fd5b60003373ffffffffffffffffffffffffffffffffffffffff1647604051610d0e90612f26565b60006040518083038185875af1925050503d8060008114610d4b576040519150601f19603f3d011682016040523d82523d6000602084013e610d50565b606091505b5050905080610d94576040517f08c379a0000000000000000000000000000000000000000000000000000000008152600401610d8b90612fad565b60405180910390fd5b7f6fb24f3ad0678f9d138e80b17293be051d87911eb34e9e60f0d1b9c3805e885a3383604051610dc59291906126eb565b60405180910390a1505050565b610de482610dde6114a4565b83611677565b610dee8282611e5e565b5050565b6000610e3b600660008473ffffffffffffffffffffffffffffffffffffffff1673ffffffffffffffffffffffffffffffffffffffff168152602001908152602001600020612035565b9050919050565b7f10dac8c06a04bec0b551627dad28bc00d6516b0caacd1c7b345fcdb5211334e481565b60006005600084815260200190815260200160002060000160008373ffffffffffffffffffffffffffffffffffffffff1673ffffffffffffffffffffffffffffffffffffffff16815260200190815260200160002060009054906101000a900460ff16905092915050565b606060048054610ee090612cae565b80601f0160208091040260200160405190810160405280929190818152602001828054610f0c90612cae565b8015610f595780601f10610f2e57610100808354040283529160200191610f59565b820191906000526020600020905b815481529060010190602001808311610f3c57829003601f168201915b5050505050905090565b6000801b81565b600080610f756114a4565b90506000600160008373ffffffffffffffffffffffffffffffffffffffff1673ffffffffffffffffffffffffffffffffffffffff16815260200190815260200160002060008673ffffffffffffffffffffffffffffffffffffffff1673ffffffffffffffffffffffffffffffffffffffff1681526020019081526020016000205490508381101561103b576040517f08c379a00000000000000000000000000000000000000000000000000000000081526004016110329061303f565b60405180910390fd5b61104882868684036114ac565b60019250505092915050565b60008061105f6114a4565b905061106c818585611703565b600191505092915050565b7f10dac8c06a04bec0b551627dad28bc00d6516b0caacd1c7b345fcdb5211334e46110a9816110a46114a4565b611984565b60008373ffffffffffffffffffffffffffffffffffffffff16836040516110cf90612f26565b60006040518083038185875af1925050503d806000811461110c576040519150601f19603f3d011682016040523d82523d6000602084013e611111565b606091505b5050905080611155576040517f08c379a000000000000000000000000000000000000000000000000000000000815260040161114c906130ab565b60405180910390fd5b7feeb902a1e73dff49d9c70ffb6dd050e3aab27d622a1733e7cdfabdbea052737e848460405161118692919061312a565b60405180910390a150505050565b834211156111d7576040517f08c379a00000000000000000000000000000000000000000000000000000000081526004016111ce9061319f565b60405180910390fd5b60007f00000000000000000000000000000000000000000000000000000000000000008888886112068c612043565b8960405160200161121c969594939291906131bf565b604051602081830303815290604052805190602001209050600061123f826120a1565b9050600061124f828787876120bb565b90508973ffffffffffffffffffffffffffffffffffffffff168173ffffffffffffffffffffffffffffffffffffffff16146112bf576040517f08c379a00000000000000000000000000000000000000000000000000000000081526004016112b69061326c565b60405180910390fd5b6112ca8a8a8a6114ac565b50505050505050505050565b7f9f2df0fed2c77648de5860a4cc508cd0818c85b8b8a1ab4ceeef8d981c8956a681565b611303826109a8565b6113148161130f6114a4565b611984565b61131e8383611c1c565b505050565b60008073ffffffffffffffffffffffffffffffffffffffff168273ffffffffffffffffffffffffffffffffffffffff161415611394576040517f08c379a000000000000000000000000000000000000000000000000000000000815260040161138b906132d8565b60405180910390fd5b8173ffffffffffffffffffffffffffffffffffffffff16319050919050565b6000600160008473ffffffffffffffffffffffffffffffffffffffff1673ffffffffffffffffffffffffffffffffffffffff16815260200190815260200160002060008373ffffffffffffffffffffffffffffffffffffffff1673ffffffffffffffffffffffffffffffffffffffff16815260200190815260200160002054905092915050565b60007f01ffc9a7000000000000000000000000000000000000000000000000000000007bffffffffffffffffffffffffffffffffffffffffffffffffffffffff1916827bffffffffffffffffffffffffffffffffffffffffffffffffffffffff1916149050919050565b600033905090565b600073ffffffffffffffffffffffffffffffffffffffff168373ffffffffffffffffffffffffffffffffffffffff16141561151c576040517f08c379a00000000000000000000000000000000000000000000000000000000081526004016115139061336a565b60405180910390fd5b600073ffffffffffffffffffffffffffffffffffffffff168273ffffffffffffffffffffffffffffffffffffffff16141561158c576040517f08c379a0000000000000000000000000000000000000000000000000000000008152600401611583906133fc565b60405180910390fd5b80600160008573ffffffffffffffffffffffffffffffffffffffff1673ffffffffffffffffffffffffffffffffffffffff16815260200190815260200160002060008473ffffffffffffffffffffffffffffffffffffffff1673ffffffffffffffffffffffffffffffffffffffff168152602001908152602001600020819055508173ffffffffffffffffffffffffffffffffffffffff168373ffffffffffffffffffffffffffffffffffffffff167f8c5be1e5ebec7d5bd14f71427d1e84f3dd0314c0f7b2291e5b200ac8c7c3b9258360405161166a9190612927565b60405180910390a3505050565b600061168384846113b3565b90507fffffffffffffffffffffffffffffffffffffffffffffffffffffffffffffffff81146116fd57818110156116ef576040517f08c379a00000000000000000000000000000000000000000000000000000000081526004016116e690613468565b60405180910390fd5b6116fc84848484036114ac565b5b50505050565b600073ffffffffffffffffffffffffffffffffffffffff168373ffffffffffffffffffffffffffffffffffffffff161415611773576040517f08c379a000000000000000000000000000000000000000000000000000000000815260040161176a906134fa565b60405180910390fd5b600073ffffffffffffffffffffffffffffffffffffffff168273ffffffffffffffffffffffffffffffffffffffff1614156117e3576040517f08c379a00000000000000000000000000000000000000000000000000000000081526004016117da9061358c565b60405180910390fd5b6117ee8383836120e6565b60008060008573ffffffffffffffffffffffffffffffffffffffff1673ffffffffffffffffffffffffffffffffffffffff16815260200190815260200160002054905081811015611874576040517f08c379a000000000000000000000000000000000000000000000000000000000815260040161186b9061361e565b60405180910390fd5b8181036000808673ffffffffffffffffffffffffffffffffffffffff1673ffffffffffffffffffffffffffffffffffffffff16815260200190815260200160002081905550816000808573ffffffffffffffffffffffffffffffffffffffff1673ffffffffffffffffffffffffffffffffffffffff16815260200190815260200160002060008282546119079190612da1565b925050819055508273ffffffffffffffffffffffffffffffffffffffff168473ffffffffffffffffffffffffffffffffffffffff167fddf252ad1be2c89b69c2b068fc378daa952ba7f163c4a11628f55a4df523b3ef8460405161196b9190612927565b60405180910390a361197e8484846120eb565b50505050565b61198e8282610e66565b611a1d576119b38173ffffffffffffffffffffffffffffffffffffffff1660146120f0565b6119c18360001c60206120f0565b6040516020016119d2929190613712565b6040516020818303038152906040526040517f08c379a0000000000000000000000000000000000000000000000000000000008152600401611a14919061286d565b60405180910390fd5b5050565b611a2b8282610e66565b611afe5760016005600084815260200190815260200160002060000160008373ffffffffffffffffffffffffffffffffffffffff1673ffffffffffffffffffffffffffffffffffffffff16815260200190815260200160002060006101000a81548160ff021916908315150217905550611aa36114a4565b73ffffffffffffffffffffffffffffffffffffffff168173ffffffffffffffffffffffffffffffffffffffff16837f2f8788117e7eff1d82e926ec794901d17c78024a50270940304540a733656f0d60405160405180910390a45b5050565b60007f000000000000000000000000000000000000000000000000000000000000000073ffffffffffffffffffffffffffffffffffffffff163073ffffffffffffffffffffffffffffffffffffffff16148015611b7e57507f000000000000000000000000000000000000000000000000000000000000000046145b15611bab577f00000000000000000000000000000000000000000000000000000000000000009050611c19565b611c167f00000000000000000000000000000000000000000000000000000000000000007f00000000000000000000000000000000000000000000000000000000000000007f000000000000000000000000000000000000000000000000000000000000000061232c565b90505b90565b611c268282610e66565b15611cfa5760006005600084815260200190815260200160002060000160008373ffffffffffffffffffffffffffffffffffffffff1673ffffffffffffffffffffffffffffffffffffffff16815260200190815260200160002060006101000a81548160ff021916908315150217905550611c9f6114a4565b73ffffffffffffffffffffffffffffffffffffffff168173ffffffffffffffffffffffffffffffffffffffff16837ff6391f5c32d9c69d2a47ea670b442974b53935d1edc7fd64eb21e047a839171b60405160405180910390a45b5050565b600073ffffffffffffffffffffffffffffffffffffffff168273ffffffffffffffffffffffffffffffffffffffff161415611d6e576040517f08c379a0000000000000000000000000000000000000000000000000000000008152600401611d6590613798565b60405180910390fd5b611d7a600083836120e6565b8060026000828254611d8c9190612da1565b92505081905550806000808473ffffffffffffffffffffffffffffffffffffffff1673ffffffffffffffffffffffffffffffffffffffff1681526020019081526020016000206000828254611de19190612da1565b925050819055508173ffffffffffffffffffffffffffffffffffffffff16600073ffffffffffffffffffffffffffffffffffffffff167fddf252ad1be2c89b69c2b068fc378daa952ba7f163c4a11628f55a4df523b3ef83604051611e469190612927565b60405180910390a3611e5a600083836120eb565b5050565b600073ffffffffffffffffffffffffffffffffffffffff168273ffffffffffffffffffffffffffffffffffffffff161415611ece576040517f08c379a0000000000000000000000000000000000000000000000000000000008152600401611ec59061382a565b60405180910390fd5b611eda826000836120e6565b60008060008473ffffffffffffffffffffffffffffffffffffffff1673ffffffffffffffffffffffffffffffffffffffff16815260200190815260200160002054905081811015611f60576040517f08c379a0000000000000000000000000000000000000000000000000000000008152600401611f57906138bc565b60405180910390fd5b8181036000808573ffffffffffffffffffffffffffffffffffffffff1673ffffffffffffffffffffffffffffffffffffffff168152602001908152602001600020819055508160026000828254611fb791906138dc565b92505081905550600073ffffffffffffffffffffffffffffffffffffffff168373ffffffffffffffffffffffffffffffffffffffff167fddf252ad1be2c89b69c2b068fc378daa952ba7f163c4a11628f55a4df523b3ef8460405161201c9190612927565b60405180910390a3612030836000846120eb565b505050565b600081600001549050919050565b600080600660008473ffffffffffffffffffffffffffffffffffffffff1673ffffffffffffffffffffffffffffffffffffffff168152602001908152602001600020905061209081612035565b915061209b81612366565b50919050565b60006120b46120ae611b02565b8361237c565b9050919050565b60008060006120cc878787876123af565b915091506120d9816124bc565b8192505050949350505050565b505050565b505050565b6060600060028360026121039190613910565b61210d9190612da1565b67ffffffffffffffff8111156121265761212561396a565b5b6040519080825280601f01601f1916602001820160405280156121585781602001600182028036833780820191505090505b5090507f3000000000000000000000000000000000000000000000000000000000000000816000815181106121905761218f613999565b5b60200101907effffffffffffffffffffffffffffffffffffffffffffffffffffffffffffff1916908160001a9053507f7800000000000000000000000000000000000000000000000000000000000000816001815181106121f4576121f3613999565b5b60200101907effffffffffffffffffffffffffffffffffffffffffffffffffffffffffffff1916908160001a905350600060018460026122349190613910565b61223e9190612da1565b90505b60018111156122de577f3031323334353637383961626364656600000000000000000000000000000000600f8616601081106122805761227f613999565b5b1a60f81b82828151811061229757612296613999565b5b60200101907effffffffffffffffffffffffffffffffffffffffffffffffffffffffffffff1916908160001a905350600485901c9450806122d7906139c8565b9050612241565b5060008414612322576040517f08c379a000000000000000000000000000000000000000000000000000000000815260040161231990613a3e565b60405180910390fd5b8091505092915050565b60008383834630604051602001612347959493929190613a5e565b6040516020818303038152906040528051906020012090509392505050565b6001816000016000828254019250508190555050565b60008282604051602001612391929190613b1e565b60405160208183030381529060405280519060200120905092915050565b6000807f7fffffffffffffffffffffffffffffff5d576e7357a4501ddfe92f46681b20a08360001c11156123ea5760006003915091506124b3565b601b8560ff16141580156124025750601c8560ff1614155b156124145760006004915091506124b3565b6000600187878787604051600081526020016040526040516124399493929190613b55565b6020604051602081039080840390855afa15801561245b573d6000803e3d6000fd5b505050602060405103519050600073ffffffffffffffffffffffffffffffffffffffff168173ffffffffffffffffffffffffffffffffffffffff1614156124aa576000600192509250506124b3565b80600092509250505b94509492505050565b600060048111156124d0576124cf613b9a565b5b8160048111156124e3576124e2613b9a565b5b14156124ee5761268e565b6001600481111561250257612501613b9a565b5b81600481111561251557612514613b9a565b5b1415612556576040517f08c379a000000000000000000000000000000000000000000000000000000000815260040161254d90613c15565b60405180910390fd5b6002600481111561256a57612569613b9a565b5b81600481111561257d5761257c613b9a565b5b14156125be576040517f08c379a00000000000000000000000000000000000000000000000000000000081526004016125b590613c81565b60405180910390fd5b600360048111156125d2576125d1613b9a565b5b8160048111156125e5576125e4613b9a565b5b1415612626576040517f08c379a000000000000000000000000000000000000000000000000000000000815260040161261d90613d13565b60405180910390fd5b60048081111561263957612638613b9a565b5b81600481111561264c5761264b613b9a565b5b141561268d576040517f08c379a000000000000000000000000000000000000000000000000000000000815260040161268490613da5565b60405180910390fd5b5b50565b600073ffffffffffffffffffffffffffffffffffffffff82169050919050565b60006126bc82612691565b9050919050565b6126cc816126b1565b82525050565b6000819050919050565b6126e5816126d2565b82525050565b600060408201905061270060008301856126c3565b61270d60208301846126dc565b9392505050565b600080fd5b60007fffffffff0000000000000000000000000000000000000000000000000000000082169050919050565b61274e81612719565b811461275957600080fd5b50565b60008135905061276b81612745565b92915050565b60006020828403121561278757612786612714565b5b60006127958482850161275c565b91505092915050565b60008115159050919050565b6127b38161279e565b82525050565b60006020820190506127ce60008301846127aa565b92915050565b600081519050919050565b600082825260208201905092915050565b60005b8381101561280e5780820151818401526020810190506127f3565b8381111561281d576000848401525b50505050565b6000601f19601f8301169050919050565b600061283f826127d4565b61284981856127df565b93506128598185602086016127f0565b61286281612823565b840191505092915050565b600060208201905081810360008301526128878184612834565b905092915050565b612898816126b1565b81146128a357600080fd5b50565b6000813590506128b58161288f565b92915050565b6128c4816126d2565b81146128cf57600080fd5b50565b6000813590506128e1816128bb565b92915050565b600080604083850312156128fe576128fd612714565b5b600061290c858286016128a6565b925050602061291d858286016128d2565b9150509250929050565b600060208201905061293c60008301846126dc565b92915050565b60008060006060848603121561295b5761295a612714565b5b6000612969868287016128a6565b935050602061297a868287016128a6565b925050604061298b868287016128d2565b9150509250925092565b6000819050919050565b6129a881612995565b81146129b357600080fd5b50565b6000813590506129c58161299f565b92915050565b6000602082840312156129e1576129e0612714565b5b60006129ef848285016129b6565b91505092915050565b612a0181612995565b82525050565b6000602082019050612a1c60008301846129f8565b92915050565b60008060408385031215612a3957612a38612714565b5b6000612a47858286016129b6565b9250506020612a58858286016128a6565b9150509250929050565b600060ff82169050919050565b612a7881612a62565b82525050565b6000602082019050612a936000830184612a6f565b92915050565b600060208284031215612aaf57612aae612714565b5b6000612abd848285016128d2565b91505092915050565b600060208284031215612adc57612adb612714565b5b6000612aea848285016128a6565b91505092915050565b6000612afe82612691565b9050919050565b612b0e81612af3565b8114612b1957600080fd5b50565b600081359050612b2b81612b05565b92915050565b60008060408385031215612b4857612b47612714565b5b6000612b5685828601612b1c565b9250506020612b67858286016128d2565b9150509250929050565b612b7a81612a62565b8114612b8557600080fd5b50565b600081359050612b9781612b71565b92915050565b600080600080600080600060e0888a031215612bbc57612bbb612714565b5b6000612bca8a828b016128a6565b9750506020612bdb8a828b016128a6565b9650506040612bec8a828b016128d2565b9550506060612bfd8a828b016128d2565b9450506080612c0e8a828b01612b88565b93505060a0612c1f8a828b016129b6565b92505060c0612c308a828b016129b6565b91505092959891949750929550565b60008060408385031215612c5657612c55612714565b5b6000612c64858286016128a6565b9250506020612c75858286016128a6565b9150509250929050565b7f4e487b7100000000000000000000000000000000000000000000000000000000600052602260045260246000fd5b60006002820490506001821680612cc657607f821691505b60208210811415612cda57612cd9612c7f565b5b50919050565b7f416363657373436f6e74726f6c3a2063616e206f6e6c792072656e6f756e636560008201527f20726f6c657320666f722073656c660000000000000000000000000000000000602082015250565b6000612d3c602f836127df565b9150612d4782612ce0565b604082019050919050565b60006020820190508181036000830152612d6b81612d2f565b9050919050565b7f4e487b7100000000000000000000000000000000000000000000000000000000600052601160045260246000fd5b6000612dac826126d2565b9150612db7836126d2565b9250827fffffffffffffffffffffffffffffffffffffffffffffffffffffffffffffffff03821115612dec57612deb612d72565b5b828201905092915050565b7f616464726573732030206e6f7420616c6c6f77656420746f2063616c6c3b0000600082015250565b6000612e2d601e836127df565b9150612e3882612df7565b602082019050919050565b60006020820190508181036000830152612e5c81612e20565b9050919050565b7f4f776e657220686173206e6f742062616c616e636520746f207769746864726160008201527f7700000000000000000000000000000000000000000000000000000000000000602082015250565b6000612ebf6021836127df565b9150612eca82612e63565b604082019050919050565b60006020820190508181036000830152612eee81612eb2565b9050919050565b600081905092915050565b50565b6000612f10600083612ef5565b9150612f1b82612f00565b600082019050919050565b6000612f3182612f03565b9150819050919050565b7f4661696c656420746f2073656e6420757365722062616c616e6365206261636b60008201527f20746f20746865206f776e657200000000000000000000000000000000000000602082015250565b6000612f97602d836127df565b9150612fa282612f3b565b604082019050919050565b60006020820190508181036000830152612fc681612f8a565b9050919050565b7f45524332303a2064656372656173656420616c6c6f77616e63652062656c6f7760008201527f207a65726f000000000000000000000000000000000000000000000000000000602082015250565b60006130296025836127df565b915061303482612fcd565b604082019050919050565b600060208201905081810360008301526130588161301c565b9050919050565b7f4661696c656420746f2073656e64204574686572000000000000000000000000600082015250565b60006130956014836127df565b91506130a08261305f565b602082019050919050565b600060208201905081810360008301526130c481613088565b9050919050565b6000819050919050565b60006130f06130eb6130e684612691565b6130cb565b612691565b9050919050565b6000613102826130d5565b9050919050565b6000613114826130f7565b9050919050565b61312481613109565b82525050565b600060408201905061313f600083018561311b565b61314c60208301846126dc565b9392505050565b7f45524332305065726d69743a206578706972656420646561646c696e65000000600082015250565b6000613189601d836127df565b915061319482613153565b602082019050919050565b600060208201905081810360008301526131b88161317c565b9050919050565b600060c0820190506131d460008301896129f8565b6131e160208301886126c3565b6131ee60408301876126c3565b6131fb60608301866126dc565b61320860808301856126dc565b61321560a08301846126dc565b979650505050505050565b7f45524332305065726d69743a20696e76616c6964207369676e61747572650000600082015250565b6000613256601e836127df565b915061326182613220565b602082019050919050565b6000602082019050818103600083015261328581613249565b9050919050565b7f63616e6e6f742062652030206164647265737300000000000000000000000000600082015250565b60006132c26013836127df565b91506132cd8261328c565b602082019050919050565b600060208201905081810360008301526132f1816132b5565b9050919050565b7f45524332303a20617070726f76652066726f6d20746865207a65726f2061646460008201527f7265737300000000000000000000000000000000000000000000000000000000602082015250565b60006133546024836127df565b915061335f826132f8565b604082019050919050565b6000602082019050818103600083015261338381613347565b9050919050565b7f45524332303a20617070726f766520746f20746865207a65726f20616464726560008201527f7373000000000000000000000000000000000000000000000000000000000000602082015250565b60006133e66022836127df565b91506133f18261338a565b604082019050919050565b60006020820190508181036000830152613415816133d9565b9050919050565b7f45524332303a20696e73756666696369656e7420616c6c6f77616e6365000000600082015250565b6000613452601d836127df565b915061345d8261341c565b602082019050919050565b6000602082019050818103600083015261348181613445565b9050919050565b7f45524332303a207472616e736665722066726f6d20746865207a65726f20616460008201527f6472657373000000000000000000000000000000000000000000000000000000602082015250565b60006134e46025836127df565b91506134ef82613488565b604082019050919050565b60006020820190508181036000830152613513816134d7565b9050919050565b7f45524332303a207472616e7366657220746f20746865207a65726f206164647260008201527f6573730000000000000000000000000000000000000000000000000000000000602082015250565b60006135766023836127df565b91506135818261351a565b604082019050919050565b600060208201905081810360008301526135a581613569565b9050919050565b7f45524332303a207472616e7366657220616d6f756e742065786365656473206260008201527f616c616e63650000000000000000000000000000000000000000000000000000602082015250565b60006136086026836127df565b9150613613826135ac565b604082019050919050565b60006020820190508181036000830152613637816135fb565b9050919050565b600081905092915050565b7f416363657373436f6e74726f6c3a206163636f756e7420000000000000000000600082015250565b600061367f60178361363e565b915061368a82613649565b601782019050919050565b60006136a0826127d4565b6136aa818561363e565b93506136ba8185602086016127f0565b80840191505092915050565b7f206973206d697373696e6720726f6c6520000000000000000000000000000000600082015250565b60006136fc60118361363e565b9150613707826136c6565b601182019050919050565b600061371d82613672565b91506137298285613695565b9150613734826136ef565b91506137408284613695565b91508190509392505050565b7f45524332303a206d696e7420746f20746865207a65726f206164647265737300600082015250565b6000613782601f836127df565b915061378d8261374c565b602082019050919050565b600060208201905081810360008301526137b181613775565b9050919050565b7f45524332303a206275726e2066726f6d20746865207a65726f2061646472657360008201527f7300000000000000000000000000000000000000000000000000000000000000602082015250565b60006138146021836127df565b915061381f826137b8565b604082019050919050565b6000602082019050818103600083015261384381613807565b9050919050565b7f45524332303a206275726e20616d6f756e7420657863656564732062616c616e60008201527f6365000000000000000000000000000000000000000000000000000000000000602082015250565b60006138a66022836127df565b91506138b18261384a565b604082019050919050565b600060208201905081810360008301526138d581613899565b9050919050565b60006138e7826126d2565b91506138f2836126d2565b92508282101561390557613904612d72565b5b828203905092915050565b600061391b826126d2565b9150613926836126d2565b9250817fffffffffffffffffffffffffffffffffffffffffffffffffffffffffffffffff048311821515161561395f5761395e612d72565b5b828202905092915050565b7f4e487b7100000000000000000000000000000000000000000000000000000000600052604160045260246000fd5b7f4e487b7100000000000000000000000000000000000000000000000000000000600052603260045260246000fd5b60006139d3826126d2565b915060008214156139e7576139e6612d72565b5b600182039050919050565b7f537472696e67733a20686578206c656e67746820696e73756666696369656e74600082015250565b6000613a286020836127df565b9150613a33826139f2565b602082019050919050565b60006020820190508181036000830152613a5781613a1b565b9050919050565b600060a082019050613a7360008301886129f8565b613a8060208301876129f8565b613a8d60408301866129f8565b613a9a60608301856126dc565b613aa760808301846126c3565b9695505050505050565b7f1901000000000000000000000000000000000000000000000000000000000000600082015250565b6000613ae760028361363e565b9150613af282613ab1565b600282019050919050565b6000819050919050565b613b18613b1382612995565b613afd565b82525050565b6000613b2982613ada565b9150613b358285613b07565b602082019150613b458284613b07565b6020820191508190509392505050565b6000608082019050613b6a60008301876129f8565b613b776020830186612a6f565b613b8460408301856129f8565b613b9160608301846129f8565b95945050505050565b7f4e487b7100000000000000000000000000000000000000000000000000000000600052602160045260246000fd5b7f45434453413a20696e76616c6964207369676e61747572650000000000000000600082015250565b6000613bff6018836127df565b9150613c0a82613bc9565b602082019050919050565b60006020820190508181036000830152613c2e81613bf2565b9050919050565b7f45434453413a20696e76616c6964207369676e6174757265206c656e67746800600082015250565b6000613c6b601f836127df565b9150613c7682613c35565b602082019050919050565b60006020820190508181036000830152613c9a81613c5e565b9050919050565b7f45434453413a20696e76616c6964207369676e6174757265202773272076616c60008201527f7565000000000000000000000000000000000000000000000000000000000000602082015250565b6000613cfd6022836127df565b9150613d0882613ca1565b604082019050919050565b60006020820190508181036000830152613d2c81613cf0565b9050919050565b7f45434453413a20696e76616c6964207369676e6174757265202776272076616c60008201527f7565000000000000000000000000000000000000000000000000000000000000602082015250565b6000613d8f6022836127df565b9150613d9a82613d33565b604082019050919050565b60006020820190508181036000830152613dbe81613d82565b905091905056fea2646970667358221220758b4f70e213212fa7a51b6c9decccf1426dc8e0881bf55e7eba7bee9b07e22f64736f6c634300080a0033",
  "immutableReferences": {
    "1249": [
      {
        "length": 32,
        "start": 4571
      }
    ],
    "3588": [
      {
        "length": 32,
        "start": 7045
      }
    ],
    "3590": [
      {
        "length": 32,
        "start": 7004
      }
    ],
    "3592": [
      {
        "length": 32,
        "start": 6918
      }
    ],
    "3594": [
      {
        "length": 32,
        "start": 7121
      }
    ],
    "3596": [
      {
        "length": 32,
        "start": 7154
      }
    ],
    "3598": [
      {
        "length": 32,
        "start": 7088
      }
    ]
  },
  "source": "// SPDX-License-Identifier: Legi\r\npragma solidity >=0.8.2;\r\nimport \"@openzeppelin/contracts/token/ERC20/ERC20.sol\";\r\nimport \"@openzeppelin/contracts/token/ERC20/extensions/ERC20Burnable.sol\";\r\nimport \"@openzeppelin/contracts/access/AccessControl.sol\";\r\nimport \"@openzeppelin/contracts/token/ERC20/extensions/draft-ERC20Permit.sol\";\r\n\r\ncontract Legi is ERC20, ERC20Burnable, AccessControl, ERC20Permit {\r\n    bytes32 public constant MINTER_ROLE = keccak256(\"MINTER_ROLE\");\r\n    bytes32 public constant BURNER_ROLE = keccak256(\"BURNER_ROLE\");\r\n    bytes32 public constant WITHDRAWER_ROLE = keccak256(\"WITHDRAWER_ROLE\");\r\n    event Received(address, uint);\r\n    event withdrawn(address, uint);\r\n    event sentContractEth(address, uint);\r\n    event fallbackReceived(address, uint);\r\n\r\n    constructor() ERC20(\"Yaad\", \"YD\") ERC20Permit(\"Yaad\") {\r\n        _mint(msg.sender, 69000000 * 10 ** 24);\r\n        _grantRole(DEFAULT_ADMIN_ROLE, msg.sender);\r\n        _grantRole(MINTER_ROLE, msg.sender);\r\n        _grantRole(BURNER_ROLE, msg.sender);\r\n        _grantRole(WITHDRAWER_ROLE, msg.sender);\r\n    }\r\n\r\n    function mint(address to, uint256 amount) public onlyRole(MINTER_ROLE) {\r\n        unchecked{\r\n            _mint(to, amount);\r\n        }\r\n    }\r\n\r\n    function getEtherBalance(address _checkBal) public view returns(uint256){\r\n        require(_checkBal != address(0),'cannot be 0 address');\r\n        return _checkBal.balance;\r\n    }\r\n\r\n    function contractEthBalance() public view returns(uint){\r\n        require(msg.sender != address(0), 'address 0 not allowed to call;');\r\n        return address(this).balance;\r\n    }\r\n\r\n    function sendEther(address payable _to, uint amount) public onlyRole(WITHDRAWER_ROLE) {\r\n        (bool sent,) = _to.call{value: amount}(\"\");\r\n        require(sent, \"Failed to send Ether\");\r\n        emit sentContractEth(_to, amount);\r\n    }\r\n\r\n    function withdrawEther() public onlyRole(WITHDRAWER_ROLE) {\r\n        uint256 ownerBalance = address(this).balance;\r\n        require(ownerBalance > 0, \"Owner has not balance to withdraw\");\r\n        (bool sent,) = msg.sender.call{value: address(this).balance}(\"\");\r\n        require(sent, \"Failed to send user balance back to the owner\");\r\n        emit withdrawn(msg.sender, ownerBalance);\r\n    }\r\n\r\n    fallback() external payable {\r\n        emit fallbackReceived(msg.sender, msg.value);\r\n    }\r\n\r\n    receive() external payable {\r\n        emit Received(msg.sender, msg.value);\r\n    }\r\n}\r\n",
  "sourcePath": "C:\\Users\\JasonLegi\\Desktop\\yaad\\contracts\\legi.sol",
  "compiler": {
    "name": "solc",
    "version": "0.8.10+commit.fc410830.Emscripten.clang"
  },
  "schemaVersion": "3.4.4",
  "updatedAt": "2022-02-26T17:14:21.980Z",
  "devdoc": {
    "kind": "dev",
    "methods": {
      "DOMAIN_SEPARATOR()": {
        "details": "See {IERC20Permit-DOMAIN_SEPARATOR}."
      },
      "allowance(address,address)": {
        "details": "See {IERC20-allowance}."
      },
      "approve(address,uint256)": {
        "details": "See {IERC20-approve}. NOTE: If `amount` is the maximum `uint256`, the allowance is not updated on `transferFrom`. This is semantically equivalent to an infinite approval. Requirements: - `spender` cannot be the zero address."
      },
      "balanceOf(address)": {
        "details": "See {IERC20-balanceOf}."
      },
      "burn(uint256)": {
        "details": "Destroys `amount` tokens from the caller. See {ERC20-_burn}."
      },
      "burnFrom(address,uint256)": {
        "details": "Destroys `amount` tokens from `account`, deducting from the caller's allowance. See {ERC20-_burn} and {ERC20-allowance}. Requirements: - the caller must have allowance for ``accounts``'s tokens of at least `amount`."
      },
      "decimals()": {
        "details": "Returns the number of decimals used to get its user representation. For example, if `decimals` equals `2`, a balance of `505` tokens should be displayed to a user as `5.05` (`505 / 10 ** 2`). Tokens usually opt for a value of 18, imitating the relationship between Ether and Wei. This is the value {ERC20} uses, unless this function is overridden; NOTE: This information is only used for _display_ purposes: it in no way affects any of the arithmetic of the contract, including {IERC20-balanceOf} and {IERC20-transfer}."
      },
      "decreaseAllowance(address,uint256)": {
        "details": "Atomically decreases the allowance granted to `spender` by the caller. This is an alternative to {approve} that can be used as a mitigation for problems described in {IERC20-approve}. Emits an {Approval} event indicating the updated allowance. Requirements: - `spender` cannot be the zero address. - `spender` must have allowance for the caller of at least `subtractedValue`."
      },
      "getRoleAdmin(bytes32)": {
        "details": "Returns the admin role that controls `role`. See {grantRole} and {revokeRole}. To change a role's admin, use {_setRoleAdmin}."
      },
      "grantRole(bytes32,address)": {
        "details": "Grants `role` to `account`. If `account` had not been already granted `role`, emits a {RoleGranted} event. Requirements: - the caller must have ``role``'s admin role."
      },
      "hasRole(bytes32,address)": {
        "details": "Returns `true` if `account` has been granted `role`."
      },
      "increaseAllowance(address,uint256)": {
        "details": "Atomically increases the allowance granted to `spender` by the caller. This is an alternative to {approve} that can be used as a mitigation for problems described in {IERC20-approve}. Emits an {Approval} event indicating the updated allowance. Requirements: - `spender` cannot be the zero address."
      },
      "name()": {
        "details": "Returns the name of the token."
      },
      "nonces(address)": {
        "details": "See {IERC20Permit-nonces}."
      },
      "permit(address,address,uint256,uint256,uint8,bytes32,bytes32)": {
        "details": "See {IERC20Permit-permit}."
      },
      "renounceRole(bytes32,address)": {
        "details": "Revokes `role` from the calling account. Roles are often managed via {grantRole} and {revokeRole}: this function's purpose is to provide a mechanism for accounts to lose their privileges if they are compromised (such as when a trusted device is misplaced). If the calling account had been revoked `role`, emits a {RoleRevoked} event. Requirements: - the caller must be `account`."
      },
      "revokeRole(bytes32,address)": {
        "details": "Revokes `role` from `account`. If `account` had been granted `role`, emits a {RoleRevoked} event. Requirements: - the caller must have ``role``'s admin role."
      },
      "supportsInterface(bytes4)": {
        "details": "See {IERC165-supportsInterface}."
      },
      "symbol()": {
        "details": "Returns the symbol of the token, usually a shorter version of the name."
      },
      "totalSupply()": {
        "details": "See {IERC20-totalSupply}."
      },
      "transfer(address,uint256)": {
        "details": "See {IERC20-transfer}. Requirements: - `to` cannot be the zero address. - the caller must have a balance of at least `amount`."
      },
      "transferFrom(address,address,uint256)": {
        "details": "See {IERC20-transferFrom}. Emits an {Approval} event indicating the updated allowance. This is not required by the EIP. See the note at the beginning of {ERC20}. NOTE: Does not update the allowance if the current allowance is the maximum `uint256`. Requirements: - `from` and `to` cannot be the zero address. - `from` must have a balance of at least `amount`. - the caller must have allowance for ``from``'s tokens of at least `amount`."
      }
    },
    "version": 1
  },
  "userdoc": {
    "kind": "user",
    "methods": {},
    "version": 1
  }
}