{
  "contractName": "Yaad",
  "abi": [
    {
      "inputs": [
        {
          "internalType": "string",
          "name": "dname",
          "type": "string"
        },
        {
          "internalType": "string",
          "name": "symb",
          "type": "string"
        }
      ],
      "stateMutability": "nonpayable",
      "type": "constructor"
    },
    {
      "anonymous": false,
      "inputs": [
        {
          "indexed": true,
          "internalType": "address",
          "name": "owner",
          "type": "address"
        },
        {
          "indexed": true,
          "internalType": "address",
          "name": "approved",
          "type": "address"
        },
        {
          "indexed": true,
          "internalType": "uint256",
          "name": "tokenId",
          "type": "uint256"
        }
      ],
      "name": "Approval",
      "type": "event"
    },
    {
      "anonymous": false,
      "inputs": [
        {
          "indexed": true,
          "internalType": "address",
          "name": "owner",
          "type": "address"
        },
        {
          "indexed": true,
          "internalType": "address",
          "name": "operator",
          "type": "address"
        },
        {
          "indexed": false,
          "internalType": "bool",
          "name": "approved",
          "type": "bool"
        }
      ],
      "name": "ApprovalForAll",
      "type": "event"
    },
    {
      "anonymous": false,
      "inputs": [
        {
          "indexed": true,
          "internalType": "address",
          "name": "previousOwner",
          "type": "address"
        },
        {
          "indexed": true,
          "internalType": "address",
          "name": "newOwner",
          "type": "address"
        }
      ],
      "name": "OwnershipTransferred",
      "type": "event"
    },
    {
      "anonymous": false,
      "inputs": [
        {
          "indexed": true,
          "internalType": "address",
          "name": "from",
          "type": "address"
        },
        {
          "indexed": true,
          "internalType": "address",
          "name": "to",
          "type": "address"
        },
        {
          "indexed": true,
          "internalType": "uint256",
          "name": "tokenId",
          "type": "uint256"
        }
      ],
      "name": "Transfer",
      "type": "event"
    },
    {
      "inputs": [
        {
          "internalType": "address",
          "name": "to",
          "type": "address"
        },
        {
          "internalType": "uint256",
          "name": "tokenId",
          "type": "uint256"
        }
      ],
      "name": "approve",
      "outputs": [],
      "stateMutability": "nonpayable",
      "type": "function"
    },
    {
      "inputs": [
        {
          "internalType": "address",
          "name": "owner",
          "type": "address"
        }
      ],
      "name": "balanceOf",
      "outputs": [
        {
          "internalType": "uint256",
          "name": "",
          "type": "uint256"
        }
      ],
      "stateMutability": "view",
      "type": "function"
    },
    {
      "inputs": [
        {
          "internalType": "uint256",
          "name": "tokenId",
          "type": "uint256"
        }
      ],
      "name": "getApproved",
      "outputs": [
        {
          "internalType": "address",
          "name": "",
          "type": "address"
        }
      ],
      "stateMutability": "view",
      "type": "function"
    },
    {
      "inputs": [
        {
          "internalType": "address",
          "name": "owner",
          "type": "address"
        },
        {
          "internalType": "address",
          "name": "operator",
          "type": "address"
        }
      ],
      "name": "isApprovedForAll",
      "outputs": [
        {
          "internalType": "bool",
          "name": "",
          "type": "bool"
        }
      ],
      "stateMutability": "view",
      "type": "function"
    },
    {
      "inputs": [],
      "name": "name",
      "outputs": [
        {
          "internalType": "string",
          "name": "",
          "type": "string"
        }
      ],
      "stateMutability": "view",
      "type": "function"
    },
    {
      "inputs": [],
      "name": "owner",
      "outputs": [
        {
          "internalType": "address",
          "name": "",
          "type": "address"
        }
      ],
      "stateMutability": "view",
      "type": "function"
    },
    {
      "inputs": [
        {
          "internalType": "uint256",
          "name": "tokenId",
          "type": "uint256"
        }
      ],
      "name": "ownerOf",
      "outputs": [
        {
          "internalType": "address",
          "name": "",
          "type": "address"
        }
      ],
      "stateMutability": "view",
      "type": "function"
    },
    {
      "inputs": [],
      "name": "renounceOwnership",
      "outputs": [],
      "stateMutability": "nonpayable",
      "type": "function"
    },
    {
      "inputs": [
        {
          "internalType": "address",
          "name": "from",
          "type": "address"
        },
        {
          "internalType": "address",
          "name": "to",
          "type": "address"
        },
        {
          "internalType": "uint256",
          "name": "tokenId",
          "type": "uint256"
        }
      ],
      "name": "safeTransferFrom",
      "outputs": [],
      "stateMutability": "nonpayable",
      "type": "function"
    },
    {
      "inputs": [
        {
          "internalType": "address",
          "name": "from",
          "type": "address"
        },
        {
          "internalType": "address",
          "name": "to",
          "type": "address"
        },
        {
          "internalType": "uint256",
          "name": "tokenId",
          "type": "uint256"
        },
        {
          "internalType": "bytes",
          "name": "_data",
          "type": "bytes"
        }
      ],
      "name": "safeTransferFrom",
      "outputs": [],
      "stateMutability": "nonpayable",
      "type": "function"
    },
    {
      "inputs": [
        {
          "internalType": "address",
          "name": "operator",
          "type": "address"
        },
        {
          "internalType": "bool",
          "name": "approved",
          "type": "bool"
        }
      ],
      "name": "setApprovalForAll",
      "outputs": [],
      "stateMutability": "nonpayable",
      "type": "function"
    },
    {
      "inputs": [
        {
          "internalType": "bytes4",
          "name": "interfaceId",
          "type": "bytes4"
        }
      ],
      "name": "supportsInterface",
      "outputs": [
        {
          "internalType": "bool",
          "name": "",
          "type": "bool"
        }
      ],
      "stateMutability": "view",
      "type": "function"
    },
    {
      "inputs": [],
      "name": "symbol",
      "outputs": [
        {
          "internalType": "string",
          "name": "",
          "type": "string"
        }
      ],
      "stateMutability": "view",
      "type": "function"
    },
    {
      "inputs": [
        {
          "internalType": "address",
          "name": "from",
          "type": "address"
        },
        {
          "internalType": "address",
          "name": "to",
          "type": "address"
        },
        {
          "internalType": "uint256",
          "name": "tokenId",
          "type": "uint256"
        }
      ],
      "name": "transferFrom",
      "outputs": [],
      "stateMutability": "nonpayable",
      "type": "function"
    },
    {
      "inputs": [
        {
          "internalType": "address",
          "name": "newOwner",
          "type": "address"
        }
      ],
      "name": "transferOwnership",
      "outputs": [],
      "stateMutability": "nonpayable",
      "type": "function"
    },
    {
      "inputs": [
        {
          "internalType": "address",
          "name": "to",
          "type": "address"
        },
        {
          "internalType": "string",
          "name": "uri",
          "type": "string"
        }
      ],
      "name": "safeMint",
      "outputs": [],
      "stateMutability": "nonpayable",
      "type": "function"
    },
    {
      "inputs": [
        {
          "internalType": "string",
          "name": "uri",
          "type": "string"
        }
      ],
      "name": "assetALreadyMinted",
      "outputs": [
        {
          "internalType": "bool",
          "name": "",
          "type": "bool"
        }
      ],
      "stateMutability": "view",
      "type": "function"
    },
    {
      "inputs": [
        {
          "internalType": "address",
          "name": "receiver",
          "type": "address"
        },
        {
          "internalType": "string",
          "name": "metadataURI",
          "type": "string"
        },
        {
          "internalType": "uint256",
          "name": "amount",
          "type": "uint256"
        }
      ],
      "name": "payToMint",
      "outputs": [
        {
          "internalType": "uint256",
          "name": "",
          "type": "uint256"
        }
      ],
      "stateMutability": "payable",
      "type": "function"
    },
    {
      "inputs": [
        {
          "internalType": "uint256",
          "name": "tokenId",
          "type": "uint256"
        }
      ],
      "name": "tokenURI",
      "outputs": [
        {
          "internalType": "string",
          "name": "",
          "type": "string"
        }
      ],
      "stateMutability": "view",
      "type": "function"
    }
  ],
  "bytecode": "0x60806040523480156200001157600080fd5b50604051620039c8380380620039c88339818101604052810190620000379190620003b0565b818181600090805190602001906200005192919062000163565b5080600190805190602001906200006a92919062000163565b5050506200008d620000816200009560201b60201c565b6200009d60201b60201c565b50506200049a565b600033905090565b6000600760009054906101000a900473ffffffffffffffffffffffffffffffffffffffff16905081600760006101000a81548173ffffffffffffffffffffffffffffffffffffffff021916908373ffffffffffffffffffffffffffffffffffffffff1602179055508173ffffffffffffffffffffffffffffffffffffffff168173ffffffffffffffffffffffffffffffffffffffff167f8be0079c531659141344cd1fd0a4f28419497f9722a3daafe3b4186f6b6457e060405160405180910390a35050565b828054620001719062000464565b90600052602060002090601f016020900481019282620001955760008555620001e1565b82601f10620001b057805160ff1916838001178555620001e1565b82800160010185558215620001e1579182015b82811115620001e0578251825591602001919060010190620001c3565b5b509050620001f09190620001f4565b5090565b5b808211156200020f576000816000905550600101620001f5565b5090565b6000604051905090565b600080fd5b600080fd5b600080fd5b600080fd5b6000601f19601f8301169050919050565b7f4e487b7100000000000000000000000000000000000000000000000000000000600052604160045260246000fd5b6200027c8262000231565b810181811067ffffffffffffffff821117156200029e576200029d62000242565b5b80604052505050565b6000620002b362000213565b9050620002c1828262000271565b919050565b600067ffffffffffffffff821115620002e457620002e362000242565b5b620002ef8262000231565b9050602081019050919050565b60005b838110156200031c578082015181840152602081019050620002ff565b838111156200032c576000848401525b50505050565b6000620003496200034384620002c6565b620002a7565b9050828152602081018484840111156200036857620003676200022c565b5b62000375848285620002fc565b509392505050565b600082601f83011262000395576200039462000227565b5b8151620003a784826020860162000332565b91505092915050565b60008060408385031215620003ca57620003c96200021d565b5b600083015167ffffffffffffffff811115620003eb57620003ea62000222565b5b620003f9858286016200037d565b925050602083015167ffffffffffffffff8111156200041d576200041c62000222565b5b6200042b858286016200037d565b9150509250929050565b7f4e487b7100000000000000000000000000000000000000000000000000000000600052602260045260246000fd5b600060028204905060018216806200047d57607f821691505b6020821081141562000494576200049362000435565b5b50919050565b61351e80620004aa6000396000f3fe6080604052600436106101145760003560e01c8063715018a6116100a0578063c87b56dd11610064578063c87b56dd146103a2578063c91bf2a4146103df578063d204c45e1461041c578063e985e9c514610445578063f2fde38b1461048257610114565b8063715018a6146102e35780638da5cb5b146102fa57806395d89b4114610325578063a22cb46514610350578063b88d4fde1461037957610114565b806323b872dd116100e757806323b872dd146101e757806342842e0e1461021057806351e74c2a146102395780636352211e1461026957806370a08231146102a657610114565b806301ffc9a71461011957806306fdde0314610156578063081812fc14610181578063095ea7b3146101be575b600080fd5b34801561012557600080fd5b50610140600480360381019061013b9190611fb5565b6104ab565b60405161014d9190611ffd565b60405180910390f35b34801561016257600080fd5b5061016b61058d565b60405161017891906120b1565b60405180910390f35b34801561018d57600080fd5b506101a860048036038101906101a39190612109565b61061f565b6040516101b59190612177565b60405180910390f35b3480156101ca57600080fd5b506101e560048036038101906101e091906121be565b6106a4565b005b3480156101f357600080fd5b5061020e600480360381019061020991906121fe565b6107bc565b005b34801561021c57600080fd5b50610237600480360381019061023291906121fe565b61081c565b005b610253600480360381019061024e9190612386565b61083c565b6040516102609190612404565b60405180910390f35b34801561027557600080fd5b50610290600480360381019061028b9190612109565b610958565b60405161029d9190612177565b60405180910390f35b3480156102b257600080fd5b506102cd60048036038101906102c8919061241f565b610a0a565b6040516102da9190612404565b60405180910390f35b3480156102ef57600080fd5b506102f8610ac2565b005b34801561030657600080fd5b5061030f610b4a565b60405161031c9190612177565b60405180910390f35b34801561033157600080fd5b5061033a610b74565b60405161034791906120b1565b60405180910390f35b34801561035c57600080fd5b5061037760048036038101906103729190612478565b610c06565b005b34801561038557600080fd5b506103a0600480360381019061039b9190612559565b610c1c565b005b3480156103ae57600080fd5b506103c960048036038101906103c49190612109565b610c7e565b6040516103d691906120b1565b60405180910390f35b3480156103eb57600080fd5b50610406600480360381019061040191906125dc565b610c90565b6040516104139190611ffd565b60405180910390f35b34801561042857600080fd5b50610443600480360381019061043e9190612625565b610ccb565b005b34801561045157600080fd5b5061046c60048036038101906104679190612681565b610d78565b6040516104799190611ffd565b60405180910390f35b34801561048e57600080fd5b506104a960048036038101906104a4919061241f565b610e0c565b005b60007f80ac58cd000000000000000000000000000000000000000000000000000000007bffffffffffffffffffffffffffffffffffffffffffffffffffffffff1916827bffffffffffffffffffffffffffffffffffffffffffffffffffffffff1916148061057657507f5b5e139f000000000000000000000000000000000000000000000000000000007bffffffffffffffffffffffffffffffffffffffffffffffffffffffff1916827bffffffffffffffffffffffffffffffffffffffffffffffffffffffff1916145b80610586575061058582610f04565b5b9050919050565b60606000805461059c906126f0565b80601f01602080910402602001604051908101604052809291908181526020018280546105c8906126f0565b80156106155780601f106105ea57610100808354040283529160200191610615565b820191906000526020600020905b8154815290600101906020018083116105f857829003601f168201915b5050505050905090565b600061062a82610f6e565b610669576040517f08c379a000000000000000000000000000000000000000000000000000000000815260040161066090612794565b60405180910390fd5b6004600083815260200190815260200160002060009054906101000a900473ffffffffffffffffffffffffffffffffffffffff169050919050565b60006106af82610958565b90508073ffffffffffffffffffffffffffffffffffffffff168373ffffffffffffffffffffffffffffffffffffffff161415610720576040517f08c379a000000000000000000000000000000000000000000000000000000000815260040161071790612826565b60405180910390fd5b8073ffffffffffffffffffffffffffffffffffffffff1661073f610fda565b73ffffffffffffffffffffffffffffffffffffffff16148061076e575061076d81610768610fda565b610d78565b5b6107ad576040517f08c379a00000000000000000000000000000000000000000000000000000000081526004016107a4906128b8565b60405180910390fd5b6107b78383610fe2565b505050565b6107cd6107c7610fda565b8261109b565b61080c576040517f08c379a00000000000000000000000000000000000000000000000000000000081526004016108039061294a565b60405180910390fd5b610817838383611179565b505050565b61083783838360405180602001604052806000815250610c1c565b505050565b6000600160098460405161085091906129a6565b908152602001604051809103902060009054906101000a900460ff1660ff1614156108b0576040517f08c379a00000000000000000000000000000000000000000000000000000000081526004016108a790612a09565b60405180910390fd5b813410156108f3576040517f08c379a00000000000000000000000000000000000000000000000000000000081526004016108ea90612a9b565b60405180910390fd5b60006108ff60086113e0565b905061090b60086113ee565b600160098560405161091d91906129a6565b908152602001604051809103902060006101000a81548160ff021916908360ff16021790555061094d8585610ccb565b809150509392505050565b6000806002600084815260200190815260200160002060009054906101000a900473ffffffffffffffffffffffffffffffffffffffff169050600073ffffffffffffffffffffffffffffffffffffffff168173ffffffffffffffffffffffffffffffffffffffff161415610a01576040517f08c379a00000000000000000000000000000000000000000000000000000000081526004016109f890612b2d565b60405180910390fd5b80915050919050565b60008073ffffffffffffffffffffffffffffffffffffffff168273ffffffffffffffffffffffffffffffffffffffff161415610a7b576040517f08c379a0000000000000000000000000000000000000000000000000000000008152600401610a7290612bbf565b60405180910390fd5b600360008373ffffffffffffffffffffffffffffffffffffffff1673ffffffffffffffffffffffffffffffffffffffff168152602001908152602001600020549050919050565b610aca610fda565b73ffffffffffffffffffffffffffffffffffffffff16610ae8610b4a565b73ffffffffffffffffffffffffffffffffffffffff1614610b3e576040517f08c379a0000000000000000000000000000000000000000000000000000000008152600401610b3590612c2b565b60405180910390fd5b610b486000611404565b565b6000600760009054906101000a900473ffffffffffffffffffffffffffffffffffffffff16905090565b606060018054610b83906126f0565b80601f0160208091040260200160405190810160405280929190818152602001828054610baf906126f0565b8015610bfc5780601f10610bd157610100808354040283529160200191610bfc565b820191906000526020600020905b815481529060010190602001808311610bdf57829003601f168201915b5050505050905090565b610c18610c11610fda565b83836114ca565b5050565b610c2d610c27610fda565b8361109b565b610c6c576040517f08c379a0000000000000000000000000000000000000000000000000000000008152600401610c639061294a565b60405180910390fd5b610c7884848484611637565b50505050565b6060610c8982611693565b9050919050565b60006001600983604051610ca491906129a6565b908152602001604051809103902060009054906101000a900460ff1660ff16149050919050565b610cd3610fda565b73ffffffffffffffffffffffffffffffffffffffff16610cf1610b4a565b73ffffffffffffffffffffffffffffffffffffffff1614610d47576040517f08c379a0000000000000000000000000000000000000000000000000000000008152600401610d3e90612c2b565b60405180910390fd5b6000610d5360086113e0565b9050610d5f60086113ee565b610d6983826117e5565b610d738183611803565b505050565b6000600560008473ffffffffffffffffffffffffffffffffffffffff1673ffffffffffffffffffffffffffffffffffffffff16815260200190815260200160002060008373ffffffffffffffffffffffffffffffffffffffff1673ffffffffffffffffffffffffffffffffffffffff16815260200190815260200160002060009054906101000a900460ff16905092915050565b610e14610fda565b73ffffffffffffffffffffffffffffffffffffffff16610e32610b4a565b73ffffffffffffffffffffffffffffffffffffffff1614610e88576040517f08c379a0000000000000000000000000000000000000000000000000000000008152600401610e7f90612c2b565b60405180910390fd5b600073ffffffffffffffffffffffffffffffffffffffff168173ffffffffffffffffffffffffffffffffffffffff161415610ef8576040517f08c379a0000000000000000000000000000000000000000000000000000000008152600401610eef90612cbd565b60405180910390fd5b610f0181611404565b50565b60007f01ffc9a7000000000000000000000000000000000000000000000000000000007bffffffffffffffffffffffffffffffffffffffffffffffffffffffff1916827bffffffffffffffffffffffffffffffffffffffffffffffffffffffff1916149050919050565b60008073ffffffffffffffffffffffffffffffffffffffff166002600084815260200190815260200160002060009054906101000a900473ffffffffffffffffffffffffffffffffffffffff1673ffffffffffffffffffffffffffffffffffffffff1614159050919050565b600033905090565b816004600083815260200190815260200160002060006101000a81548173ffffffffffffffffffffffffffffffffffffffff021916908373ffffffffffffffffffffffffffffffffffffffff160217905550808273ffffffffffffffffffffffffffffffffffffffff1661105583610958565b73ffffffffffffffffffffffffffffffffffffffff167f8c5be1e5ebec7d5bd14f71427d1e84f3dd0314c0f7b2291e5b200ac8c7c3b92560405160405180910390a45050565b60006110a682610f6e565b6110e5576040517f08c379a00000000000000000000000000000000000000000000000000000000081526004016110dc90612d4f565b60405180910390fd5b60006110f083610958565b90508073ffffffffffffffffffffffffffffffffffffffff168473ffffffffffffffffffffffffffffffffffffffff16148061115f57508373ffffffffffffffffffffffffffffffffffffffff166111478461061f565b73ffffffffffffffffffffffffffffffffffffffff16145b80611170575061116f8185610d78565b5b91505092915050565b8273ffffffffffffffffffffffffffffffffffffffff1661119982610958565b73ffffffffffffffffffffffffffffffffffffffff16146111ef576040517f08c379a00000000000000000000000000000000000000000000000000000000081526004016111e690612de1565b60405180910390fd5b600073ffffffffffffffffffffffffffffffffffffffff168273ffffffffffffffffffffffffffffffffffffffff16141561125f576040517f08c379a000000000000000000000000000000000000000000000000000000000815260040161125690612e73565b60405180910390fd5b61126a838383611877565b611275600082610fe2565b6001600360008573ffffffffffffffffffffffffffffffffffffffff1673ffffffffffffffffffffffffffffffffffffffff16815260200190815260200160002060008282546112c59190612ec2565b925050819055506001600360008473ffffffffffffffffffffffffffffffffffffffff1673ffffffffffffffffffffffffffffffffffffffff168152602001908152602001600020600082825461131c9190612ef6565b92505081905550816002600083815260200190815260200160002060006101000a81548173ffffffffffffffffffffffffffffffffffffffff021916908373ffffffffffffffffffffffffffffffffffffffff160217905550808273ffffffffffffffffffffffffffffffffffffffff168473ffffffffffffffffffffffffffffffffffffffff167fddf252ad1be2c89b69c2b068fc378daa952ba7f163c4a11628f55a4df523b3ef60405160405180910390a46113db83838361187c565b505050565b600081600001549050919050565b6001816000016000828254019250508190555050565b6000600760009054906101000a900473ffffffffffffffffffffffffffffffffffffffff16905081600760006101000a81548173ffffffffffffffffffffffffffffffffffffffff021916908373ffffffffffffffffffffffffffffffffffffffff1602179055508173ffffffffffffffffffffffffffffffffffffffff168173ffffffffffffffffffffffffffffffffffffffff167f8be0079c531659141344cd1fd0a4f28419497f9722a3daafe3b4186f6b6457e060405160405180910390a35050565b8173ffffffffffffffffffffffffffffffffffffffff168373ffffffffffffffffffffffffffffffffffffffff161415611539576040517f08c379a000000000000000000000000000000000000000000000000000000000815260040161153090612f98565b60405180910390fd5b80600560008573ffffffffffffffffffffffffffffffffffffffff1673ffffffffffffffffffffffffffffffffffffffff16815260200190815260200160002060008473ffffffffffffffffffffffffffffffffffffffff1673ffffffffffffffffffffffffffffffffffffffff16815260200190815260200160002060006101000a81548160ff0219169083151502179055508173ffffffffffffffffffffffffffffffffffffffff168373ffffffffffffffffffffffffffffffffffffffff167f17307eab39ab6107e8899845ad3d59bd9653f200f220920489ca2b5937696c318360405161162a9190611ffd565b60405180910390a3505050565b611642848484611179565b61164e84848484611881565b61168d576040517f08c379a00000000000000000000000000000000000000000000000000000000081526004016116849061302a565b60405180910390fd5b50505050565b606061169e82610f6e565b6116dd576040517f08c379a00000000000000000000000000000000000000000000000000000000081526004016116d4906130bc565b60405180910390fd5b60006006600084815260200190815260200160002080546116fd906126f0565b80601f0160208091040260200160405190810160405280929190818152602001828054611729906126f0565b80156117765780601f1061174b57610100808354040283529160200191611776565b820191906000526020600020905b81548152906001019060200180831161175957829003601f168201915b505050505090506000611787611a09565b905060008151141561179d5781925050506117e0565b6000825111156117d25780826040516020016117ba9291906130dc565b604051602081830303815290604052925050506117e0565b6117db84611a46565b925050505b919050565b6117ff828260405180602001604052806000815250611aed565b5050565b61180c82610f6e565b61184b576040517f08c379a000000000000000000000000000000000000000000000000000000000815260040161184290613172565b60405180910390fd5b80600660008481526020019081526020016000209080519060200190611872929190611ea6565b505050565b505050565b505050565b60006118a28473ffffffffffffffffffffffffffffffffffffffff16611b48565b156119fc578373ffffffffffffffffffffffffffffffffffffffff1663150b7a026118cb610fda565b8786866040518563ffffffff1660e01b81526004016118ed94939291906131e7565b6020604051808303816000875af192505050801561192957506040513d601f19601f820116820180604052508101906119269190613248565b60015b6119ac573d8060008114611959576040519150601f19603f3d011682016040523d82523d6000602084013e61195e565b606091505b506000815114156119a4576040517f08c379a000000000000000000000000000000000000000000000000000000000815260040161199b9061302a565b60405180910390fd5b805181602001fd5b63150b7a0260e01b7bffffffffffffffffffffffffffffffffffffffffffffffffffffffff1916817bffffffffffffffffffffffffffffffffffffffffffffffffffffffff191614915050611a01565b600190505b949350505050565b60606040518060400160405280600781526020017f697066733a2f2f00000000000000000000000000000000000000000000000000815250905090565b6060611a5182610f6e565b611a90576040517f08c379a0000000000000000000000000000000000000000000000000000000008152600401611a87906132e7565b60405180910390fd5b6000611a9a611a09565b90506000815111611aba5760405180602001604052806000815250611ae5565b80611ac484611b6b565b604051602001611ad59291906130dc565b6040516020818303038152906040525b915050919050565b611af78383611ccc565b611b046000848484611881565b611b43576040517f08c379a0000000000000000000000000000000000000000000000000000000008152600401611b3a9061302a565b60405180910390fd5b505050565b6000808273ffffffffffffffffffffffffffffffffffffffff163b119050919050565b60606000821415611bb3576040518060400160405280600181526020017f30000000000000000000000000000000000000000000000000000000000000008152509050611cc7565b600082905060005b60008214611be5578080611bce90613307565b915050600a82611bde919061337f565b9150611bbb565b60008167ffffffffffffffff811115611c0157611c0061225b565b5b6040519080825280601f01601f191660200182016040528015611c335781602001600182028036833780820191505090505b5090505b60008514611cc057600182611c4c9190612ec2565b9150600a85611c5b91906133b0565b6030611c679190612ef6565b60f81b818381518110611c7d57611c7c6133e1565b5b60200101907effffffffffffffffffffffffffffffffffffffffffffffffffffffffffffff1916908160001a905350600a85611cb9919061337f565b9450611c37565b8093505050505b919050565b600073ffffffffffffffffffffffffffffffffffffffff168273ffffffffffffffffffffffffffffffffffffffff161415611d3c576040517f08c379a0000000000000000000000000000000000000000000000000000000008152600401611d339061345c565b60405180910390fd5b611d4581610f6e565b15611d85576040517f08c379a0000000000000000000000000000000000000000000000000000000008152600401611d7c906134c8565b60405180910390fd5b611d9160008383611877565b6001600360008473ffffffffffffffffffffffffffffffffffffffff1673ffffffffffffffffffffffffffffffffffffffff1681526020019081526020016000206000828254611de19190612ef6565b92505081905550816002600083815260200190815260200160002060006101000a81548173ffffffffffffffffffffffffffffffffffffffff021916908373ffffffffffffffffffffffffffffffffffffffff160217905550808273ffffffffffffffffffffffffffffffffffffffff16600073ffffffffffffffffffffffffffffffffffffffff167fddf252ad1be2c89b69c2b068fc378daa952ba7f163c4a11628f55a4df523b3ef60405160405180910390a4611ea26000838361187c565b5050565b828054611eb2906126f0565b90600052602060002090601f016020900481019282611ed45760008555611f1b565b82601f10611eed57805160ff1916838001178555611f1b565b82800160010185558215611f1b579182015b82811115611f1a578251825591602001919060010190611eff565b5b509050611f289190611f2c565b5090565b5b80821115611f45576000816000905550600101611f2d565b5090565b6000604051905090565b600080fd5b600080fd5b60007fffffffff0000000000000000000000000000000000000000000000000000000082169050919050565b611f9281611f5d565b8114611f9d57600080fd5b50565b600081359050611faf81611f89565b92915050565b600060208284031215611fcb57611fca611f53565b5b6000611fd984828501611fa0565b91505092915050565b60008115159050919050565b611ff781611fe2565b82525050565b60006020820190506120126000830184611fee565b92915050565b600081519050919050565b600082825260208201905092915050565b60005b83811015612052578082015181840152602081019050612037565b83811115612061576000848401525b50505050565b6000601f19601f8301169050919050565b600061208382612018565b61208d8185612023565b935061209d818560208601612034565b6120a681612067565b840191505092915050565b600060208201905081810360008301526120cb8184612078565b905092915050565b6000819050919050565b6120e6816120d3565b81146120f157600080fd5b50565b600081359050612103816120dd565b92915050565b60006020828403121561211f5761211e611f53565b5b600061212d848285016120f4565b91505092915050565b600073ffffffffffffffffffffffffffffffffffffffff82169050919050565b600061216182612136565b9050919050565b61217181612156565b82525050565b600060208201905061218c6000830184612168565b92915050565b61219b81612156565b81146121a657600080fd5b50565b6000813590506121b881612192565b92915050565b600080604083850312156121d5576121d4611f53565b5b60006121e3858286016121a9565b92505060206121f4858286016120f4565b9150509250929050565b60008060006060848603121561221757612216611f53565b5b6000612225868287016121a9565b9350506020612236868287016121a9565b9250506040612247868287016120f4565b9150509250925092565b600080fd5b600080fd5b7f4e487b7100000000000000000000000000000000000000000000000000000000600052604160045260246000fd5b61229382612067565b810181811067ffffffffffffffff821117156122b2576122b161225b565b5b80604052505050565b60006122c5611f49565b90506122d1828261228a565b919050565b600067ffffffffffffffff8211156122f1576122f061225b565b5b6122fa82612067565b9050602081019050919050565b82818337600083830152505050565b6000612329612324846122d6565b6122bb565b90508281526020810184848401111561234557612344612256565b5b612350848285612307565b509392505050565b600082601f83011261236d5761236c612251565b5b813561237d848260208601612316565b91505092915050565b60008060006060848603121561239f5761239e611f53565b5b60006123ad868287016121a9565b935050602084013567ffffffffffffffff8111156123ce576123cd611f58565b5b6123da86828701612358565b92505060406123eb868287016120f4565b9150509250925092565b6123fe816120d3565b82525050565b600060208201905061241960008301846123f5565b92915050565b60006020828403121561243557612434611f53565b5b6000612443848285016121a9565b91505092915050565b61245581611fe2565b811461246057600080fd5b50565b6000813590506124728161244c565b92915050565b6000806040838503121561248f5761248e611f53565b5b600061249d858286016121a9565b92505060206124ae85828601612463565b9150509250929050565b600067ffffffffffffffff8211156124d3576124d261225b565b5b6124dc82612067565b9050602081019050919050565b60006124fc6124f7846124b8565b6122bb565b90508281526020810184848401111561251857612517612256565b5b612523848285612307565b509392505050565b600082601f8301126125405761253f612251565b5b81356125508482602086016124e9565b91505092915050565b6000806000806080858703121561257357612572611f53565b5b6000612581878288016121a9565b9450506020612592878288016121a9565b93505060406125a3878288016120f4565b925050606085013567ffffffffffffffff8111156125c4576125c3611f58565b5b6125d08782880161252b565b91505092959194509250565b6000602082840312156125f2576125f1611f53565b5b600082013567ffffffffffffffff8111156126105761260f611f58565b5b61261c84828501612358565b91505092915050565b6000806040838503121561263c5761263b611f53565b5b600061264a858286016121a9565b925050602083013567ffffffffffffffff81111561266b5761266a611f58565b5b61267785828601612358565b9150509250929050565b6000806040838503121561269857612697611f53565b5b60006126a6858286016121a9565b92505060206126b7858286016121a9565b9150509250929050565b7f4e487b7100000000000000000000000000000000000000000000000000000000600052602260045260246000fd5b6000600282049050600182168061270857607f821691505b6020821081141561271c5761271b6126c1565b5b50919050565b7f4552433732313a20617070726f76656420717565727920666f72206e6f6e657860008201527f697374656e7420746f6b656e0000000000000000000000000000000000000000602082015250565b600061277e602c83612023565b915061278982612722565b604082019050919050565b600060208201905081810360008301526127ad81612771565b9050919050565b7f4552433732313a20617070726f76616c20746f2063757272656e74206f776e6560008201527f7200000000000000000000000000000000000000000000000000000000000000602082015250565b6000612810602183612023565b915061281b826127b4565b604082019050919050565b6000602082019050818103600083015261283f81612803565b9050919050565b7f4552433732313a20617070726f76652063616c6c6572206973206e6f74206f7760008201527f6e6572206e6f7220617070726f76656420666f7220616c6c0000000000000000602082015250565b60006128a2603883612023565b91506128ad82612846565b604082019050919050565b600060208201905081810360008301526128d181612895565b9050919050565b7f4552433732313a207472616e736665722063616c6c6572206973206e6f74206f60008201527f776e6572206e6f7220617070726f766564000000000000000000000000000000602082015250565b6000612934603183612023565b915061293f826128d8565b604082019050919050565b6000602082019050818103600083015261296381612927565b9050919050565b600081905092915050565b600061298082612018565b61298a818561296a565b935061299a818560208601612034565b80840191505092915050565b60006129b28284612975565b915081905092915050565b7f4e4654206d696e74656420616c72656164790000000000000000000000000000600082015250565b60006129f3601283612023565b91506129fe826129bd565b602082019050919050565b60006020820190508181036000830152612a22816129e6565b9050919050565b7f204661696c656420746f206d696e742c696e736666696369656e7420616d6f7560008201527f6e742e0000000000000000000000000000000000000000000000000000000000602082015250565b6000612a85602383612023565b9150612a9082612a29565b604082019050919050565b60006020820190508181036000830152612ab481612a78565b9050919050565b7f4552433732313a206f776e657220717565727920666f72206e6f6e657869737460008201527f656e7420746f6b656e0000000000000000000000000000000000000000000000602082015250565b6000612b17602983612023565b9150612b2282612abb565b604082019050919050565b60006020820190508181036000830152612b4681612b0a565b9050919050565b7f4552433732313a2062616c616e636520717565727920666f7220746865207a6560008201527f726f206164647265737300000000000000000000000000000000000000000000602082015250565b6000612ba9602a83612023565b9150612bb482612b4d565b604082019050919050565b60006020820190508181036000830152612bd881612b9c565b9050919050565b7f4f776e61626c653a2063616c6c6572206973206e6f7420746865206f776e6572600082015250565b6000612c15602083612023565b9150612c2082612bdf565b602082019050919050565b60006020820190508181036000830152612c4481612c08565b9050919050565b7f4f776e61626c653a206e6577206f776e657220697320746865207a65726f206160008201527f6464726573730000000000000000000000000000000000000000000000000000602082015250565b6000612ca7602683612023565b9150612cb282612c4b565b604082019050919050565b60006020820190508181036000830152612cd681612c9a565b9050919050565b7f4552433732313a206f70657261746f7220717565727920666f72206e6f6e657860008201527f697374656e7420746f6b656e0000000000000000000000000000000000000000602082015250565b6000612d39602c83612023565b9150612d4482612cdd565b604082019050919050565b60006020820190508181036000830152612d6881612d2c565b9050919050565b7f4552433732313a207472616e736665722066726f6d20696e636f72726563742060008201527f6f776e6572000000000000000000000000000000000000000000000000000000602082015250565b6000612dcb602583612023565b9150612dd682612d6f565b604082019050919050565b60006020820190508181036000830152612dfa81612dbe565b9050919050565b7f4552433732313a207472616e7366657220746f20746865207a65726f2061646460008201527f7265737300000000000000000000000000000000000000000000000000000000602082015250565b6000612e5d602483612023565b9150612e6882612e01565b604082019050919050565b60006020820190508181036000830152612e8c81612e50565b9050919050565b7f4e487b7100000000000000000000000000000000000000000000000000000000600052601160045260246000fd5b6000612ecd826120d3565b9150612ed8836120d3565b925082821015612eeb57612eea612e93565b5b828203905092915050565b6000612f01826120d3565b9150612f0c836120d3565b9250827fffffffffffffffffffffffffffffffffffffffffffffffffffffffffffffffff03821115612f4157612f40612e93565b5b828201905092915050565b7f4552433732313a20617070726f766520746f2063616c6c657200000000000000600082015250565b6000612f82601983612023565b9150612f8d82612f4c565b602082019050919050565b60006020820190508181036000830152612fb181612f75565b9050919050565b7f4552433732313a207472616e7366657220746f206e6f6e20455243373231526560008201527f63656976657220696d706c656d656e7465720000000000000000000000000000602082015250565b6000613014603283612023565b915061301f82612fb8565b604082019050919050565b6000602082019050818103600083015261304381613007565b9050919050565b7f45524337323155524953746f726167653a2055524920717565727920666f722060008201527f6e6f6e6578697374656e7420746f6b656e000000000000000000000000000000602082015250565b60006130a6603183612023565b91506130b18261304a565b604082019050919050565b600060208201905081810360008301526130d581613099565b9050919050565b60006130e88285612975565b91506130f48284612975565b91508190509392505050565b7f45524337323155524953746f726167653a2055524920736574206f66206e6f6e60008201527f6578697374656e7420746f6b656e000000000000000000000000000000000000602082015250565b600061315c602e83612023565b915061316782613100565b604082019050919050565b6000602082019050818103600083015261318b8161314f565b9050919050565b600081519050919050565b600082825260208201905092915050565b60006131b982613192565b6131c3818561319d565b93506131d3818560208601612034565b6131dc81612067565b840191505092915050565b60006080820190506131fc6000830187612168565b6132096020830186612168565b61321660408301856123f5565b818103606083015261322881846131ae565b905095945050505050565b60008151905061324281611f89565b92915050565b60006020828403121561325e5761325d611f53565b5b600061326c84828501613233565b91505092915050565b7f4552433732314d657461646174613a2055524920717565727920666f72206e6f60008201527f6e6578697374656e7420746f6b656e0000000000000000000000000000000000602082015250565b60006132d1602f83612023565b91506132dc82613275565b604082019050919050565b60006020820190508181036000830152613300816132c4565b9050919050565b6000613312826120d3565b91507fffffffffffffffffffffffffffffffffffffffffffffffffffffffffffffffff82141561334557613344612e93565b5b600182019050919050565b7f4e487b7100000000000000000000000000000000000000000000000000000000600052601260045260246000fd5b600061338a826120d3565b9150613395836120d3565b9250826133a5576133a4613350565b5b828204905092915050565b60006133bb826120d3565b91506133c6836120d3565b9250826133d6576133d5613350565b5b828206905092915050565b7f4e487b7100000000000000000000000000000000000000000000000000000000600052603260045260246000fd5b7f4552433732313a206d696e7420746f20746865207a65726f2061646472657373600082015250565b6000613446602083612023565b915061345182613410565b602082019050919050565b6000602082019050818103600083015261347581613439565b9050919050565b7f4552433732313a20746f6b656e20616c7265616479206d696e74656400000000600082015250565b60006134b2601c83612023565b91506134bd8261347c565b602082019050919050565b600060208201905081810360008301526134e1816134a5565b905091905056fea2646970667358221220501c4b030b9afebb55c11d557d994310937ad612f1bba1984c29ea7dbc78e58864736f6c634300080a0033",
  "immutableReferences": {},
  "source": "// SPDX-License-Identifier: MIT\r\npragma solidity ^0.8.4;\r\n\r\nimport \"./imports721.sol\";\r\n\r\n/// @custom:security-contact legidesign@gmail.com\r\ncontract Yaad is ERC721, ERC721URIStorage, Ownable {\r\n    using Counters for Counters.Counter;\r\n\r\n    Counters.Counter private _tokenIdCounter;\r\n\r\n    mapping (string=>uint8) uriDatabase;\r\n\r\n    constructor(string memory dname, string memory symb) ERC721(dname, symb) {}\r\n\r\n    function safeMint(address to, string memory uri) public onlyOwner {\r\n        uint256 tokenId = _tokenIdCounter.current();\r\n        _tokenIdCounter.increment();\r\n        _safeMint(to, tokenId);\r\n        _setTokenURI(tokenId, uri);\r\n    }\r\n    \r\n    function _baseURI() internal pure override returns (string memory) {\r\n        return \"ipfs://\";\r\n    }\r\n\r\n    function assetALreadyMinted(string memory uri) public view returns(bool){\r\n        return uriDatabase[uri] == 1; \r\n    }\r\n\r\n    function payToMint(address receiver, string memory metadataURI, uint256 amount) payable public returns(uint256){\r\n        require(uriDatabase[metadataURI] != 1, \"NFT minted already\");\r\n        require(msg.value >= amount, \" Failed to mint,insfficient amount.\");\r\n        uint256 theTokenID = _tokenIdCounter.current();\r\n        _tokenIdCounter.increment();\r\n        uriDatabase[metadataURI] = 1;\r\n        safeMint(receiver, metadataURI);\r\n        return theTokenID;\r\n    }\r\n    // The following functions are overrides required by Solidity.\r\n\r\n    function _burn(uint256 tokenId) internal override(ERC721, ERC721URIStorage) {\r\n        super._burn(tokenId);\r\n    }\r\n\r\n    function tokenURI(uint256 tokenId)\r\n        public\r\n        view\r\n        override(ERC721, ERC721URIStorage)\r\n        returns (string memory)\r\n    {\r\n        return super.tokenURI(tokenId);\r\n    }\r\n}",
  "sourcePath": "C:\\Users\\JasonLegi\\Desktop\\yaad\\contracts\\yaad.sol",
  "compiler": {
    "name": "solc",
    "version": "0.8.10+commit.fc410830.Emscripten.clang"
  },
  "schemaVersion": "3.4.4",
  "updatedAt": "2022-03-17T12:12:50.186Z",
  "devdoc": {
    "custom:security-contact": "legidesign@gmail.com",
    "kind": "dev",
    "methods": {
      "approve(address,uint256)": {
        "details": "See {IERC721-approve}."
      },
      "balanceOf(address)": {
        "details": "See {IERC721-balanceOf}."
      },
      "getApproved(uint256)": {
        "details": "See {IERC721-getApproved}."
      },
      "isApprovedForAll(address,address)": {
        "details": "See {IERC721-isApprovedForAll}."
      },
      "name()": {
        "details": "See {IERC721Metadata-name}."
      },
      "owner()": {
        "details": "Returns the address of the current owner."
      },
      "ownerOf(uint256)": {
        "details": "See {IERC721-ownerOf}."
      },
      "renounceOwnership()": {
        "details": "Leaves the contract without owner. It will not be possible to call `onlyOwner` functions anymore. Can only be called by the current owner. NOTE: Renouncing ownership will leave the contract without an owner, thereby removing any functionality that is only available to the owner."
      },
      "safeTransferFrom(address,address,uint256)": {
        "details": "See {IERC721-safeTransferFrom}."
      },
      "safeTransferFrom(address,address,uint256,bytes)": {
        "details": "See {IERC721-safeTransferFrom}."
      },
      "setApprovalForAll(address,bool)": {
        "details": "See {IERC721-setApprovalForAll}."
      },
      "supportsInterface(bytes4)": {
        "details": "See {IERC165-supportsInterface}."
      },
      "symbol()": {
        "details": "See {IERC721Metadata-symbol}."
      },
      "transferFrom(address,address,uint256)": {
        "details": "See {IERC721-transferFrom}."
      },
      "transferOwnership(address)": {
        "details": "Transfers ownership of the contract to a new account (`newOwner`). Can only be called by the current owner."
      }
    },
    "version": 1
  },
  "userdoc": {
    "kind": "user",
    "methods": {},
    "version": 1
  }
}