{
  "contractName": "Legi",
  "abi": [
    {
      "inputs": [
        {
          "internalType": "string",
          "name": "dname",
          "type": "string"
        },
        {
          "internalType": "string",
          "name": "symb",
          "type": "string"
        }
      ],
      "stateMutability": "nonpayable",
      "type": "constructor"
    },
    {
      "anonymous": false,
      "inputs": [
        {
          "indexed": true,
          "internalType": "address",
          "name": "owner",
          "type": "address"
        },
        {
          "indexed": true,
          "internalType": "address",
          "name": "spender",
          "type": "address"
        },
        {
          "indexed": false,
          "internalType": "uint256",
          "name": "value",
          "type": "uint256"
        }
      ],
      "name": "Approval",
      "type": "event"
    },
    {
      "anonymous": false,
      "inputs": [
        {
          "indexed": false,
          "internalType": "address",
          "name": "",
          "type": "address"
        },
        {
          "indexed": false,
          "internalType": "uint256",
          "name": "",
          "type": "uint256"
        }
      ],
      "name": "Received",
      "type": "event"
    },
    {
      "anonymous": false,
      "inputs": [
        {
          "indexed": true,
          "internalType": "bytes32",
          "name": "role",
          "type": "bytes32"
        },
        {
          "indexed": true,
          "internalType": "bytes32",
          "name": "previousAdminRole",
          "type": "bytes32"
        },
        {
          "indexed": true,
          "internalType": "bytes32",
          "name": "newAdminRole",
          "type": "bytes32"
        }
      ],
      "name": "RoleAdminChanged",
      "type": "event"
    },
    {
      "anonymous": false,
      "inputs": [
        {
          "indexed": true,
          "internalType": "bytes32",
          "name": "role",
          "type": "bytes32"
        },
        {
          "indexed": true,
          "internalType": "address",
          "name": "account",
          "type": "address"
        },
        {
          "indexed": true,
          "internalType": "address",
          "name": "sender",
          "type": "address"
        }
      ],
      "name": "RoleGranted",
      "type": "event"
    },
    {
      "anonymous": false,
      "inputs": [
        {
          "indexed": true,
          "internalType": "bytes32",
          "name": "role",
          "type": "bytes32"
        },
        {
          "indexed": true,
          "internalType": "address",
          "name": "account",
          "type": "address"
        },
        {
          "indexed": true,
          "internalType": "address",
          "name": "sender",
          "type": "address"
        }
      ],
      "name": "RoleRevoked",
      "type": "event"
    },
    {
      "anonymous": false,
      "inputs": [
        {
          "indexed": true,
          "internalType": "address",
          "name": "from",
          "type": "address"
        },
        {
          "indexed": true,
          "internalType": "address",
          "name": "to",
          "type": "address"
        },
        {
          "indexed": false,
          "internalType": "uint256",
          "name": "value",
          "type": "uint256"
        }
      ],
      "name": "Transfer",
      "type": "event"
    },
    {
      "anonymous": false,
      "inputs": [
        {
          "indexed": false,
          "internalType": "address",
          "name": "",
          "type": "address"
        },
        {
          "indexed": false,
          "internalType": "uint256",
          "name": "",
          "type": "uint256"
        }
      ],
      "name": "fallbackReceived",
      "type": "event"
    },
    {
      "anonymous": false,
      "inputs": [
        {
          "indexed": false,
          "internalType": "address",
          "name": "",
          "type": "address"
        },
        {
          "indexed": false,
          "internalType": "uint256",
          "name": "",
          "type": "uint256"
        }
      ],
      "name": "sentContractEth",
      "type": "event"
    },
    {
      "anonymous": false,
      "inputs": [
        {
          "indexed": false,
          "internalType": "address",
          "name": "",
          "type": "address"
        },
        {
          "indexed": false,
          "internalType": "uint256",
          "name": "",
          "type": "uint256"
        }
      ],
      "name": "withdrawn",
      "type": "event"
    },
    {
      "stateMutability": "payable",
      "type": "fallback"
    },
    {
      "inputs": [],
      "name": "BURNER_ROLE",
      "outputs": [
        {
          "internalType": "bytes32",
          "name": "",
          "type": "bytes32"
        }
      ],
      "stateMutability": "view",
      "type": "function"
    },
    {
      "inputs": [],
      "name": "DEFAULT_ADMIN_ROLE",
      "outputs": [
        {
          "internalType": "bytes32",
          "name": "",
          "type": "bytes32"
        }
      ],
      "stateMutability": "view",
      "type": "function"
    },
    {
      "inputs": [],
      "name": "DOMAIN_SEPARATOR",
      "outputs": [
        {
          "internalType": "bytes32",
          "name": "",
          "type": "bytes32"
        }
      ],
      "stateMutability": "view",
      "type": "function"
    },
    {
      "inputs": [],
      "name": "MINTER_ROLE",
      "outputs": [
        {
          "internalType": "bytes32",
          "name": "",
          "type": "bytes32"
        }
      ],
      "stateMutability": "view",
      "type": "function"
    },
    {
      "inputs": [],
      "name": "WITHDRAWER_ROLE",
      "outputs": [
        {
          "internalType": "bytes32",
          "name": "",
          "type": "bytes32"
        }
      ],
      "stateMutability": "view",
      "type": "function"
    },
    {
      "inputs": [
        {
          "internalType": "address",
          "name": "owner",
          "type": "address"
        },
        {
          "internalType": "address",
          "name": "spender",
          "type": "address"
        }
      ],
      "name": "allowance",
      "outputs": [
        {
          "internalType": "uint256",
          "name": "",
          "type": "uint256"
        }
      ],
      "stateMutability": "view",
      "type": "function"
    },
    {
      "inputs": [
        {
          "internalType": "address",
          "name": "spender",
          "type": "address"
        },
        {
          "internalType": "uint256",
          "name": "amount",
          "type": "uint256"
        }
      ],
      "name": "approve",
      "outputs": [
        {
          "internalType": "bool",
          "name": "",
          "type": "bool"
        }
      ],
      "stateMutability": "nonpayable",
      "type": "function"
    },
    {
      "inputs": [
        {
          "internalType": "address",
          "name": "account",
          "type": "address"
        }
      ],
      "name": "balanceOf",
      "outputs": [
        {
          "internalType": "uint256",
          "name": "",
          "type": "uint256"
        }
      ],
      "stateMutability": "view",
      "type": "function"
    },
    {
      "inputs": [
        {
          "internalType": "uint256",
          "name": "amount",
          "type": "uint256"
        }
      ],
      "name": "burn",
      "outputs": [],
      "stateMutability": "nonpayable",
      "type": "function"
    },
    {
      "inputs": [
        {
          "internalType": "address",
          "name": "account",
          "type": "address"
        },
        {
          "internalType": "uint256",
          "name": "amount",
          "type": "uint256"
        }
      ],
      "name": "burnFrom",
      "outputs": [],
      "stateMutability": "nonpayable",
      "type": "function"
    },
    {
      "inputs": [],
      "name": "decimals",
      "outputs": [
        {
          "internalType": "uint8",
          "name": "",
          "type": "uint8"
        }
      ],
      "stateMutability": "view",
      "type": "function"
    },
    {
      "inputs": [
        {
          "internalType": "address",
          "name": "spender",
          "type": "address"
        },
        {
          "internalType": "uint256",
          "name": "subtractedValue",
          "type": "uint256"
        }
      ],
      "name": "decreaseAllowance",
      "outputs": [
        {
          "internalType": "bool",
          "name": "",
          "type": "bool"
        }
      ],
      "stateMutability": "nonpayable",
      "type": "function"
    },
    {
      "inputs": [
        {
          "internalType": "bytes32",
          "name": "role",
          "type": "bytes32"
        }
      ],
      "name": "getRoleAdmin",
      "outputs": [
        {
          "internalType": "bytes32",
          "name": "",
          "type": "bytes32"
        }
      ],
      "stateMutability": "view",
      "type": "function"
    },
    {
      "inputs": [
        {
          "internalType": "bytes32",
          "name": "role",
          "type": "bytes32"
        },
        {
          "internalType": "address",
          "name": "account",
          "type": "address"
        }
      ],
      "name": "grantRole",
      "outputs": [],
      "stateMutability": "nonpayable",
      "type": "function"
    },
    {
      "inputs": [
        {
          "internalType": "bytes32",
          "name": "role",
          "type": "bytes32"
        },
        {
          "internalType": "address",
          "name": "account",
          "type": "address"
        }
      ],
      "name": "hasRole",
      "outputs": [
        {
          "internalType": "bool",
          "name": "",
          "type": "bool"
        }
      ],
      "stateMutability": "view",
      "type": "function"
    },
    {
      "inputs": [
        {
          "internalType": "address",
          "name": "spender",
          "type": "address"
        },
        {
          "internalType": "uint256",
          "name": "addedValue",
          "type": "uint256"
        }
      ],
      "name": "increaseAllowance",
      "outputs": [
        {
          "internalType": "bool",
          "name": "",
          "type": "bool"
        }
      ],
      "stateMutability": "nonpayable",
      "type": "function"
    },
    {
      "inputs": [],
      "name": "name",
      "outputs": [
        {
          "internalType": "string",
          "name": "",
          "type": "string"
        }
      ],
      "stateMutability": "view",
      "type": "function"
    },
    {
      "inputs": [
        {
          "internalType": "address",
          "name": "owner",
          "type": "address"
        }
      ],
      "name": "nonces",
      "outputs": [
        {
          "internalType": "uint256",
          "name": "",
          "type": "uint256"
        }
      ],
      "stateMutability": "view",
      "type": "function"
    },
    {
      "inputs": [
        {
          "internalType": "address",
          "name": "owner",
          "type": "address"
        },
        {
          "internalType": "address",
          "name": "spender",
          "type": "address"
        },
        {
          "internalType": "uint256",
          "name": "value",
          "type": "uint256"
        },
        {
          "internalType": "uint256",
          "name": "deadline",
          "type": "uint256"
        },
        {
          "internalType": "uint8",
          "name": "v",
          "type": "uint8"
        },
        {
          "internalType": "bytes32",
          "name": "r",
          "type": "bytes32"
        },
        {
          "internalType": "bytes32",
          "name": "s",
          "type": "bytes32"
        }
      ],
      "name": "permit",
      "outputs": [],
      "stateMutability": "nonpayable",
      "type": "function"
    },
    {
      "inputs": [
        {
          "internalType": "bytes32",
          "name": "role",
          "type": "bytes32"
        },
        {
          "internalType": "address",
          "name": "account",
          "type": "address"
        }
      ],
      "name": "renounceRole",
      "outputs": [],
      "stateMutability": "nonpayable",
      "type": "function"
    },
    {
      "inputs": [
        {
          "internalType": "bytes32",
          "name": "role",
          "type": "bytes32"
        },
        {
          "internalType": "address",
          "name": "account",
          "type": "address"
        }
      ],
      "name": "revokeRole",
      "outputs": [],
      "stateMutability": "nonpayable",
      "type": "function"
    },
    {
      "inputs": [
        {
          "internalType": "bytes4",
          "name": "interfaceId",
          "type": "bytes4"
        }
      ],
      "name": "supportsInterface",
      "outputs": [
        {
          "internalType": "bool",
          "name": "",
          "type": "bool"
        }
      ],
      "stateMutability": "view",
      "type": "function"
    },
    {
      "inputs": [],
      "name": "symbol",
      "outputs": [
        {
          "internalType": "string",
          "name": "",
          "type": "string"
        }
      ],
      "stateMutability": "view",
      "type": "function"
    },
    {
      "inputs": [],
      "name": "totalSupply",
      "outputs": [
        {
          "internalType": "uint256",
          "name": "",
          "type": "uint256"
        }
      ],
      "stateMutability": "view",
      "type": "function"
    },
    {
      "inputs": [
        {
          "internalType": "address",
          "name": "to",
          "type": "address"
        },
        {
          "internalType": "uint256",
          "name": "amount",
          "type": "uint256"
        }
      ],
      "name": "transfer",
      "outputs": [
        {
          "internalType": "bool",
          "name": "",
          "type": "bool"
        }
      ],
      "stateMutability": "nonpayable",
      "type": "function"
    },
    {
      "inputs": [
        {
          "internalType": "address",
          "name": "from",
          "type": "address"
        },
        {
          "internalType": "address",
          "name": "to",
          "type": "address"
        },
        {
          "internalType": "uint256",
          "name": "amount",
          "type": "uint256"
        }
      ],
      "name": "transferFrom",
      "outputs": [
        {
          "internalType": "bool",
          "name": "",
          "type": "bool"
        }
      ],
      "stateMutability": "nonpayable",
      "type": "function"
    },
    {
      "stateMutability": "payable",
      "type": "receive"
    },
    {
      "inputs": [
        {
          "internalType": "address",
          "name": "to",
          "type": "address"
        },
        {
          "internalType": "uint256",
          "name": "amount",
          "type": "uint256"
        }
      ],
      "name": "mint",
      "outputs": [],
      "stateMutability": "nonpayable",
      "type": "function"
    },
    {
      "inputs": [
        {
          "internalType": "address",
          "name": "_checkBal",
          "type": "address"
        }
      ],
      "name": "getEtherBalance",
      "outputs": [
        {
          "internalType": "uint256",
          "name": "",
          "type": "uint256"
        }
      ],
      "stateMutability": "view",
      "type": "function"
    },
    {
      "inputs": [],
      "name": "contractEthBalance",
      "outputs": [
        {
          "internalType": "uint256",
          "name": "",
          "type": "uint256"
        }
      ],
      "stateMutability": "view",
      "type": "function"
    },
    {
      "inputs": [
        {
          "internalType": "address payable",
          "name": "_to",
          "type": "address"
        },
        {
          "internalType": "uint256",
          "name": "amount",
          "type": "uint256"
        }
      ],
      "name": "sendEther",
      "outputs": [],
      "stateMutability": "nonpayable",
      "type": "function"
    },
    {
      "inputs": [],
      "name": "withdrawEther",
      "outputs": [],
      "stateMutability": "nonpayable",
      "type": "function"
    }
  ],
  "bytecode": "0x6101606040527f6e71edae12b1b97f4d1f60370fef10105fa2faae0126114a169c64845d6126c9610140908152503480156200003a57600080fd5b506040516200499e3803806200499e8339818101604052810190620000609190620007cb565b81806040518060400160405280600181526020017f310000000000000000000000000000000000000000000000000000000000000081525084848160039080519060200190620000b29291906200057e565b508060049080519060200190620000cb9291906200057e565b50505060008280519060200120905060008280519060200120905060007f8b73c3c69bb8fe3d512ecc4cf759cc79239f7b179b0ffacaa9a75d522b39400f90508260e081815250508161010081815250504660a08181525050620001378184846200025a60201b60201c565b608081815250503073ffffffffffffffffffffffffffffffffffffffff1660c08173ffffffffffffffffffffffffffffffffffffffff1681525050806101208181525050505050505050620001a1336d0366e7064422fd842023400000006200029660201b60201c565b620001b66000801b336200040f60201b60201c565b620001ee604051602001620001cb90620008ab565b60405160208183030381529060405280519060200120336200040f60201b60201c565b620002207f3c11d16cbaffd01df69ce1c404f6340ee057498f5f00246190ea54220576a848336200040f60201b60201c565b620002527f10dac8c06a04bec0b551627dad28bc00d6516b0caacd1c7b345fcdb5211334e4336200040f60201b60201c565b505062000b2b565b60008383834630604051602001620002779594939291906200093d565b6040516020818303038152906040528051906020012090509392505050565b600073ffffffffffffffffffffffffffffffffffffffff168273ffffffffffffffffffffffffffffffffffffffff16141562000309576040517f08c379a00000000000000000000000000000000000000000000000000000000081526004016200030090620009fb565b60405180910390fd5b6200031d600083836200050160201b60201c565b806002600082825462000331919062000a4c565b92505081905550806000808473ffffffffffffffffffffffffffffffffffffffff1673ffffffffffffffffffffffffffffffffffffffff168152602001908152602001600020600082825462000388919062000a4c565b925050819055508173ffffffffffffffffffffffffffffffffffffffff16600073ffffffffffffffffffffffffffffffffffffffff167fddf252ad1be2c89b69c2b068fc378daa952ba7f163c4a11628f55a4df523b3ef83604051620003ef919062000aa9565b60405180910390a36200040b600083836200050660201b60201c565b5050565b6200042182826200050b60201b60201c565b620004fd5760016005600084815260200190815260200160002060000160008373ffffffffffffffffffffffffffffffffffffffff1673ffffffffffffffffffffffffffffffffffffffff16815260200190815260200160002060006101000a81548160ff021916908315150217905550620004a26200057660201b60201c565b73ffffffffffffffffffffffffffffffffffffffff168173ffffffffffffffffffffffffffffffffffffffff16837f2f8788117e7eff1d82e926ec794901d17c78024a50270940304540a733656f0d60405160405180910390a45b5050565b505050565b505050565b60006005600084815260200190815260200160002060000160008373ffffffffffffffffffffffffffffffffffffffff1673ffffffffffffffffffffffffffffffffffffffff16815260200190815260200160002060009054906101000a900460ff16905092915050565b600033905090565b8280546200058c9062000af5565b90600052602060002090601f016020900481019282620005b05760008555620005fc565b82601f10620005cb57805160ff1916838001178555620005fc565b82800160010185558215620005fc579182015b82811115620005fb578251825591602001919060010190620005de565b5b5090506200060b91906200060f565b5090565b5b808211156200062a57600081600090555060010162000610565b5090565b6000604051905090565b600080fd5b600080fd5b600080fd5b600080fd5b6000601f19601f8301169050919050565b7f4e487b7100000000000000000000000000000000000000000000000000000000600052604160045260246000fd5b62000697826200064c565b810181811067ffffffffffffffff82111715620006b957620006b86200065d565b5b80604052505050565b6000620006ce6200062e565b9050620006dc82826200068c565b919050565b600067ffffffffffffffff821115620006ff57620006fe6200065d565b5b6200070a826200064c565b9050602081019050919050565b60005b83811015620007375780820151818401526020810190506200071a565b8381111562000747576000848401525b50505050565b6000620007646200075e84620006e1565b620006c2565b90508281526020810184848401111562000783576200078262000647565b5b6200079084828562000717565b509392505050565b600082601f830112620007b057620007af62000642565b5b8151620007c28482602086016200074d565b91505092915050565b60008060408385031215620007e557620007e462000638565b5b600083015167ffffffffffffffff8111156200080657620008056200063d565b5b620008148582860162000798565b925050602083015167ffffffffffffffff8111156200083857620008376200063d565b5b620008468582860162000798565b9150509250929050565b600081905092915050565b7f4d494e5445525f524f4c45000000000000000000000000000000000000000000600082015250565b600062000893600b8362000850565b9150620008a0826200085b565b600b82019050919050565b6000620008b88262000884565b9150819050919050565b6000819050919050565b620008d781620008c2565b82525050565b6000819050919050565b620008f281620008dd565b82525050565b600073ffffffffffffffffffffffffffffffffffffffff82169050919050565b60006200092582620008f8565b9050919050565b620009378162000918565b82525050565b600060a082019050620009546000830188620008cc565b620009636020830187620008cc565b620009726040830186620008cc565b620009816060830185620008e7565b6200099060808301846200092c565b9695505050505050565b600082825260208201905092915050565b7f45524332303a206d696e7420746f20746865207a65726f206164647265737300600082015250565b6000620009e3601f836200099a565b9150620009f082620009ab565b602082019050919050565b6000602082019050818103600083015262000a1681620009d4565b9050919050565b7f4e487b7100000000000000000000000000000000000000000000000000000000600052601160045260246000fd5b600062000a5982620008dd565b915062000a6683620008dd565b9250827fffffffffffffffffffffffffffffffffffffffffffffffffffffffffffffffff0382111562000a9e5762000a9d62000a1d565b5b828201905092915050565b600060208201905062000ac06000830184620008e7565b92915050565b7f4e487b7100000000000000000000000000000000000000000000000000000000600052602260045260246000fd5b6000600282049050600182168062000b0e57607f821691505b6020821081141562000b255762000b2462000ac6565b5b50919050565b60805160a05160c05160e051610100516101205161014051613e1862000b8660003960006111df01526000611bb801526000611bfa01526000611bd901526000611b0e01526000611b6401526000611b8d0152613e186000f3fe6080604052600436106101dc5760003560e01c806370a0823111610102578063a457c2d711610095578063d539139311610064578063d539139314610772578063d547741f1461079d578063dc45d08e146107c6578063dd62ed3e146108035761021c565b8063a457c2d7146106a6578063a9059cbb146106e3578063c1756a2c14610720578063d505accf146107495761021c565b806385f438c1116100d157806385f438c1146105e857806391d148541461061357806395d89b4114610650578063a217fddf1461067b5761021c565b806370a082311461052e5780637362377b1461056b57806379cc6790146105825780637ecebe00146105ab5761021c565b80632f2ff15d1161017a5780633950935111610149578063395093511461047457806340c10f19146104b157806342966c68146104da5780635d58ce36146105035761021c565b80632f2ff15d146103cc578063313ce567146103f55780633644e5151461042057806336568abe1461044b5761021c565b806318160ddd116101b657806318160ddd146102fc57806323b872dd14610327578063248a9ca314610364578063282c51f3146103a15761021c565b806301ffc9a71461025757806306fdde0314610294578063095ea7b3146102bf5761021c565b3661021c577f88a5966d370b9919b20f3e2c13ff65706f196a4e32cc2c12bf57088f8852587433346040516102129291906126f3565b60405180910390a1005b7fb3c31997a6804b3c509ae2d939af7825aa5ff255ee8a5e1987303012e1bbd4bd333460405161024d9291906126f3565b60405180910390a1005b34801561026357600080fd5b5061027e60048036038101906102799190612779565b610840565b60405161028b91906127c1565b60405180910390f35b3480156102a057600080fd5b506102a96108ba565b6040516102b69190612875565b60405180910390f35b3480156102cb57600080fd5b506102e660048036038101906102e191906128ef565b61094c565b6040516102f391906127c1565b60405180910390f35b34801561030857600080fd5b5061031161096f565b60405161031e919061292f565b60405180910390f35b34801561033357600080fd5b5061034e6004803603810190610349919061294a565b610979565b60405161035b91906127c1565b60405180910390f35b34801561037057600080fd5b5061038b600480360381019061038691906129d3565b6109a8565b6040516103989190612a0f565b60405180910390f35b3480156103ad57600080fd5b506103b66109c8565b6040516103c39190612a0f565b60405180910390f35b3480156103d857600080fd5b506103f360048036038101906103ee9190612a2a565b6109ec565b005b34801561040157600080fd5b5061040a610a15565b6040516104179190612a86565b60405180910390f35b34801561042c57600080fd5b50610435610a1e565b6040516104429190612a0f565b60405180910390f35b34801561045757600080fd5b50610472600480360381019061046d9190612a2a565b610a2d565b005b34801561048057600080fd5b5061049b600480360381019061049691906128ef565b610ab0565b6040516104a891906127c1565b60405180910390f35b3480156104bd57600080fd5b506104d860048036038101906104d391906128ef565b610b5a565b005b3480156104e657600080fd5b5061050160048036038101906104fc9190612aa1565b610b9f565b005b34801561050f57600080fd5b50610518610bb3565b604051610525919061292f565b60405180910390f35b34801561053a57600080fd5b5061055560048036038101906105509190612ace565b610c2a565b604051610562919061292f565b60405180910390f35b34801561057757600080fd5b50610580610c72565b005b34801561058e57600080fd5b506105a960048036038101906105a491906128ef565b610dd6565b005b3480156105b757600080fd5b506105d260048036038101906105cd9190612ace565b610df6565b6040516105df919061292f565b60405180910390f35b3480156105f457600080fd5b506105fd610e46565b60405161060a9190612a0f565b60405180910390f35b34801561061f57600080fd5b5061063a60048036038101906106359190612a2a565b610e6a565b60405161064791906127c1565b60405180910390f35b34801561065c57600080fd5b50610665610ed5565b6040516106729190612875565b60405180910390f35b34801561068757600080fd5b50610690610f67565b60405161069d9190612a0f565b60405180910390f35b3480156106b257600080fd5b506106cd60048036038101906106c891906128ef565b610f6e565b6040516106da91906127c1565b60405180910390f35b3480156106ef57600080fd5b5061070a600480360381019061070591906128ef565b611058565b60405161071791906127c1565b60405180910390f35b34801561072c57600080fd5b5061074760048036038101906107429190612b39565b61107b565b005b34801561075557600080fd5b50610770600480360381019061076b9190612ba5565b611198565b005b34801561077e57600080fd5b506107876112da565b6040516107949190612a0f565b60405180910390f35b3480156107a957600080fd5b506107c460048036038101906107bf9190612a2a565b611302565b005b3480156107d257600080fd5b506107ed60048036038101906107e89190612ace565b61132b565b6040516107fa919061292f565b60405180910390f35b34801561080f57600080fd5b5061082a60048036038101906108259190612c47565b6113bb565b604051610837919061292f565b60405180910390f35b60007f7965db0b000000000000000000000000000000000000000000000000000000007bffffffffffffffffffffffffffffffffffffffffffffffffffffffff1916827bffffffffffffffffffffffffffffffffffffffffffffffffffffffff191614806108b357506108b282611442565b5b9050919050565b6060600380546108c990612cb6565b80601f01602080910402602001604051908101604052809291908181526020018280546108f590612cb6565b80156109425780601f1061091757610100808354040283529160200191610942565b820191906000526020600020905b81548152906001019060200180831161092557829003601f168201915b5050505050905090565b6000806109576114ac565b90506109648185856114b4565b600191505092915050565b6000600254905090565b6000806109846114ac565b905061099185828561167f565b61099c85858561170b565b60019150509392505050565b600060056000838152602001908152602001600020600101549050919050565b7f3c11d16cbaffd01df69ce1c404f6340ee057498f5f00246190ea54220576a84881565b6109f5826109a8565b610a0681610a016114ac565b61198c565b610a108383611a29565b505050565b60006012905090565b6000610a28611b0a565b905090565b610a356114ac565b73ffffffffffffffffffffffffffffffffffffffff168173ffffffffffffffffffffffffffffffffffffffff1614610aa2576040517f08c379a0000000000000000000000000000000000000000000000000000000008152600401610a9990612d5a565b60405180910390fd5b610aac8282611c24565b5050565b600080610abb6114ac565b9050610b4f818585600160008673ffffffffffffffffffffffffffffffffffffffff1673ffffffffffffffffffffffffffffffffffffffff16815260200190815260200160002060008973ffffffffffffffffffffffffffffffffffffffff1673ffffffffffffffffffffffffffffffffffffffff16815260200190815260200160002054610b4a9190612da9565b6114b4565b600191505092915050565b604051602001610b6990612e56565b60405160208183030381529060405280519060200120610b9081610b8b6114ac565b61198c565b610b9a8383611d06565b505050565b610bb0610baa6114ac565b82611e66565b50565b60008073ffffffffffffffffffffffffffffffffffffffff163373ffffffffffffffffffffffffffffffffffffffff161415610c24576040517f08c379a0000000000000000000000000000000000000000000000000000000008152600401610c1b90612eb7565b60405180910390fd5b47905090565b60008060008373ffffffffffffffffffffffffffffffffffffffff1673ffffffffffffffffffffffffffffffffffffffff168152602001908152602001600020549050919050565b7f10dac8c06a04bec0b551627dad28bc00d6516b0caacd1c7b345fcdb5211334e4610ca481610c9f6114ac565b61198c565b600047905060008111610cec576040517f08c379a0000000000000000000000000000000000000000000000000000000008152600401610ce390612f23565b60405180910390fd5b60003373ffffffffffffffffffffffffffffffffffffffff1647604051610d1290612f74565b60006040518083038185875af1925050503d8060008114610d4f576040519150601f19603f3d011682016040523d82523d6000602084013e610d54565b606091505b5050905080610d98576040517f08c379a0000000000000000000000000000000000000000000000000000000008152600401610d8f90612fd5565b60405180910390fd5b7f6fb24f3ad0678f9d138e80b17293be051d87911eb34e9e60f0d1b9c3805e885a3383604051610dc99291906126f3565b60405180910390a1505050565b610de882610de26114ac565b8361167f565b610df28282611e66565b5050565b6000610e3f600660008473ffffffffffffffffffffffffffffffffffffffff1673ffffffffffffffffffffffffffffffffffffffff16815260200190815260200160002061203d565b9050919050565b7f10dac8c06a04bec0b551627dad28bc00d6516b0caacd1c7b345fcdb5211334e481565b60006005600084815260200190815260200160002060000160008373ffffffffffffffffffffffffffffffffffffffff1673ffffffffffffffffffffffffffffffffffffffff16815260200190815260200160002060009054906101000a900460ff16905092915050565b606060048054610ee490612cb6565b80601f0160208091040260200160405190810160405280929190818152602001828054610f1090612cb6565b8015610f5d5780601f10610f3257610100808354040283529160200191610f5d565b820191906000526020600020905b815481529060010190602001808311610f4057829003601f168201915b5050505050905090565b6000801b81565b600080610f796114ac565b90506000600160008373ffffffffffffffffffffffffffffffffffffffff1673ffffffffffffffffffffffffffffffffffffffff16815260200190815260200160002060008673ffffffffffffffffffffffffffffffffffffffff1673ffffffffffffffffffffffffffffffffffffffff1681526020019081526020016000205490508381101561103f576040517f08c379a000000000000000000000000000000000000000000000000000000000815260040161103690613067565b60405180910390fd5b61104c82868684036114b4565b60019250505092915050565b6000806110636114ac565b905061107081858561170b565b600191505092915050565b7f10dac8c06a04bec0b551627dad28bc00d6516b0caacd1c7b345fcdb5211334e46110ad816110a86114ac565b61198c565b60008373ffffffffffffffffffffffffffffffffffffffff16836040516110d390612f74565b60006040518083038185875af1925050503d8060008114611110576040519150601f19603f3d011682016040523d82523d6000602084013e611115565b606091505b5050905080611159576040517f08c379a0000000000000000000000000000000000000000000000000000000008152600401611150906130d3565b60405180910390fd5b7feeb902a1e73dff49d9c70ffb6dd050e3aab27d622a1733e7cdfabdbea052737e848460405161118a929190613152565b60405180910390a150505050565b834211156111db576040517f08c379a00000000000000000000000000000000000000000000000000000000081526004016111d2906131c7565b60405180910390fd5b60007f000000000000000000000000000000000000000000000000000000000000000088888861120a8c61204b565b89604051602001611220969594939291906131e7565b6040516020818303038152906040528051906020012090506000611243826120a9565b90506000611253828787876120c3565b90508973ffffffffffffffffffffffffffffffffffffffff168173ffffffffffffffffffffffffffffffffffffffff16146112c3576040517f08c379a00000000000000000000000000000000000000000000000000000000081526004016112ba90613294565b60405180910390fd5b6112ce8a8a8a6114b4565b50505050505050505050565b6040516020016112e990612e56565b6040516020818303038152906040528051906020012081565b61130b826109a8565b61131c816113176114ac565b61198c565b6113268383611c24565b505050565b60008073ffffffffffffffffffffffffffffffffffffffff168273ffffffffffffffffffffffffffffffffffffffff16141561139c576040517f08c379a000000000000000000000000000000000000000000000000000000000815260040161139390613300565b60405180910390fd5b8173ffffffffffffffffffffffffffffffffffffffff16319050919050565b6000600160008473ffffffffffffffffffffffffffffffffffffffff1673ffffffffffffffffffffffffffffffffffffffff16815260200190815260200160002060008373ffffffffffffffffffffffffffffffffffffffff1673ffffffffffffffffffffffffffffffffffffffff16815260200190815260200160002054905092915050565b60007f01ffc9a7000000000000000000000000000000000000000000000000000000007bffffffffffffffffffffffffffffffffffffffffffffffffffffffff1916827bffffffffffffffffffffffffffffffffffffffffffffffffffffffff1916149050919050565b600033905090565b600073ffffffffffffffffffffffffffffffffffffffff168373ffffffffffffffffffffffffffffffffffffffff161415611524576040517f08c379a000000000000000000000000000000000000000000000000000000000815260040161151b90613392565b60405180910390fd5b600073ffffffffffffffffffffffffffffffffffffffff168273ffffffffffffffffffffffffffffffffffffffff161415611594576040517f08c379a000000000000000000000000000000000000000000000000000000000815260040161158b90613424565b60405180910390fd5b80600160008573ffffffffffffffffffffffffffffffffffffffff1673ffffffffffffffffffffffffffffffffffffffff16815260200190815260200160002060008473ffffffffffffffffffffffffffffffffffffffff1673ffffffffffffffffffffffffffffffffffffffff168152602001908152602001600020819055508173ffffffffffffffffffffffffffffffffffffffff168373ffffffffffffffffffffffffffffffffffffffff167f8c5be1e5ebec7d5bd14f71427d1e84f3dd0314c0f7b2291e5b200ac8c7c3b92583604051611672919061292f565b60405180910390a3505050565b600061168b84846113bb565b90507fffffffffffffffffffffffffffffffffffffffffffffffffffffffffffffffff811461170557818110156116f7576040517f08c379a00000000000000000000000000000000000000000000000000000000081526004016116ee90613490565b60405180910390fd5b61170484848484036114b4565b5b50505050565b600073ffffffffffffffffffffffffffffffffffffffff168373ffffffffffffffffffffffffffffffffffffffff16141561177b576040517f08c379a000000000000000000000000000000000000000000000000000000000815260040161177290613522565b60405180910390fd5b600073ffffffffffffffffffffffffffffffffffffffff168273ffffffffffffffffffffffffffffffffffffffff1614156117eb576040517f08c379a00000000000000000000000000000000000000000000000000000000081526004016117e2906135b4565b60405180910390fd5b6117f68383836120ee565b60008060008573ffffffffffffffffffffffffffffffffffffffff1673ffffffffffffffffffffffffffffffffffffffff1681526020019081526020016000205490508181101561187c576040517f08c379a000000000000000000000000000000000000000000000000000000000815260040161187390613646565b60405180910390fd5b8181036000808673ffffffffffffffffffffffffffffffffffffffff1673ffffffffffffffffffffffffffffffffffffffff16815260200190815260200160002081905550816000808573ffffffffffffffffffffffffffffffffffffffff1673ffffffffffffffffffffffffffffffffffffffff168152602001908152602001600020600082825461190f9190612da9565b925050819055508273ffffffffffffffffffffffffffffffffffffffff168473ffffffffffffffffffffffffffffffffffffffff167fddf252ad1be2c89b69c2b068fc378daa952ba7f163c4a11628f55a4df523b3ef84604051611973919061292f565b60405180910390a36119868484846120f3565b50505050565b6119968282610e6a565b611a25576119bb8173ffffffffffffffffffffffffffffffffffffffff1660146120f8565b6119c98360001c60206120f8565b6040516020016119da92919061372f565b6040516020818303038152906040526040517f08c379a0000000000000000000000000000000000000000000000000000000008152600401611a1c9190612875565b60405180910390fd5b5050565b611a338282610e6a565b611b065760016005600084815260200190815260200160002060000160008373ffffffffffffffffffffffffffffffffffffffff1673ffffffffffffffffffffffffffffffffffffffff16815260200190815260200160002060006101000a81548160ff021916908315150217905550611aab6114ac565b73ffffffffffffffffffffffffffffffffffffffff168173ffffffffffffffffffffffffffffffffffffffff16837f2f8788117e7eff1d82e926ec794901d17c78024a50270940304540a733656f0d60405160405180910390a45b5050565b60007f000000000000000000000000000000000000000000000000000000000000000073ffffffffffffffffffffffffffffffffffffffff163073ffffffffffffffffffffffffffffffffffffffff16148015611b8657507f000000000000000000000000000000000000000000000000000000000000000046145b15611bb3577f00000000000000000000000000000000000000000000000000000000000000009050611c21565b611c1e7f00000000000000000000000000000000000000000000000000000000000000007f00000000000000000000000000000000000000000000000000000000000000007f0000000000000000000000000000000000000000000000000000000000000000612334565b90505b90565b611c2e8282610e6a565b15611d025760006005600084815260200190815260200160002060000160008373ffffffffffffffffffffffffffffffffffffffff1673ffffffffffffffffffffffffffffffffffffffff16815260200190815260200160002060006101000a81548160ff021916908315150217905550611ca76114ac565b73ffffffffffffffffffffffffffffffffffffffff168173ffffffffffffffffffffffffffffffffffffffff16837ff6391f5c32d9c69d2a47ea670b442974b53935d1edc7fd64eb21e047a839171b60405160405180910390a45b5050565b600073ffffffffffffffffffffffffffffffffffffffff168273ffffffffffffffffffffffffffffffffffffffff161415611d76576040517f08c379a0000000000000000000000000000000000000000000000000000000008152600401611d6d906137b5565b60405180910390fd5b611d82600083836120ee565b8060026000828254611d949190612da9565b92505081905550806000808473ffffffffffffffffffffffffffffffffffffffff1673ffffffffffffffffffffffffffffffffffffffff1681526020019081526020016000206000828254611de99190612da9565b925050819055508173ffffffffffffffffffffffffffffffffffffffff16600073ffffffffffffffffffffffffffffffffffffffff167fddf252ad1be2c89b69c2b068fc378daa952ba7f163c4a11628f55a4df523b3ef83604051611e4e919061292f565b60405180910390a3611e62600083836120f3565b5050565b600073ffffffffffffffffffffffffffffffffffffffff168273ffffffffffffffffffffffffffffffffffffffff161415611ed6576040517f08c379a0000000000000000000000000000000000000000000000000000000008152600401611ecd90613847565b60405180910390fd5b611ee2826000836120ee565b60008060008473ffffffffffffffffffffffffffffffffffffffff1673ffffffffffffffffffffffffffffffffffffffff16815260200190815260200160002054905081811015611f68576040517f08c379a0000000000000000000000000000000000000000000000000000000008152600401611f5f906138d9565b60405180910390fd5b8181036000808573ffffffffffffffffffffffffffffffffffffffff1673ffffffffffffffffffffffffffffffffffffffff168152602001908152602001600020819055508160026000828254611fbf91906138f9565b92505081905550600073ffffffffffffffffffffffffffffffffffffffff168373ffffffffffffffffffffffffffffffffffffffff167fddf252ad1be2c89b69c2b068fc378daa952ba7f163c4a11628f55a4df523b3ef84604051612024919061292f565b60405180910390a3612038836000846120f3565b505050565b600081600001549050919050565b600080600660008473ffffffffffffffffffffffffffffffffffffffff1673ffffffffffffffffffffffffffffffffffffffff16815260200190815260200160002090506120988161203d565b91506120a38161236e565b50919050565b60006120bc6120b6611b0a565b83612384565b9050919050565b60008060006120d4878787876123b7565b915091506120e1816124c4565b8192505050949350505050565b505050565b505050565b60606000600283600261210b919061392d565b6121159190612da9565b67ffffffffffffffff81111561212e5761212d613987565b5b6040519080825280601f01601f1916602001820160405280156121605781602001600182028036833780820191505090505b5090507f300000000000000000000000000000000000000000000000000000000000000081600081518110612198576121976139b6565b5b60200101907effffffffffffffffffffffffffffffffffffffffffffffffffffffffffffff1916908160001a9053507f7800000000000000000000000000000000000000000000000000000000000000816001815181106121fc576121fb6139b6565b5b60200101907effffffffffffffffffffffffffffffffffffffffffffffffffffffffffffff1916908160001a9053506000600184600261223c919061392d565b6122469190612da9565b90505b60018111156122e6577f3031323334353637383961626364656600000000000000000000000000000000600f861660108110612288576122876139b6565b5b1a60f81b82828151811061229f5761229e6139b6565b5b60200101907effffffffffffffffffffffffffffffffffffffffffffffffffffffffffffff1916908160001a905350600485901c9450806122df906139e5565b9050612249565b506000841461232a576040517f08c379a000000000000000000000000000000000000000000000000000000000815260040161232190613a5b565b60405180910390fd5b8091505092915050565b6000838383463060405160200161234f959493929190613a7b565b6040516020818303038152906040528051906020012090509392505050565b6001816000016000828254019250508190555050565b60008282604051602001612399929190613b3b565b60405160208183030381529060405280519060200120905092915050565b6000807f7fffffffffffffffffffffffffffffff5d576e7357a4501ddfe92f46681b20a08360001c11156123f25760006003915091506124bb565b601b8560ff161415801561240a5750601c8560ff1614155b1561241c5760006004915091506124bb565b6000600187878787604051600081526020016040526040516124419493929190613b72565b6020604051602081039080840390855afa158015612463573d6000803e3d6000fd5b505050602060405103519050600073ffffffffffffffffffffffffffffffffffffffff168173ffffffffffffffffffffffffffffffffffffffff1614156124b2576000600192509250506124bb565b80600092509250505b94509492505050565b600060048111156124d8576124d7613bb7565b5b8160048111156124eb576124ea613bb7565b5b14156124f657612696565b6001600481111561250a57612509613bb7565b5b81600481111561251d5761251c613bb7565b5b141561255e576040517f08c379a000000000000000000000000000000000000000000000000000000000815260040161255590613c32565b60405180910390fd5b6002600481111561257257612571613bb7565b5b81600481111561258557612584613bb7565b5b14156125c6576040517f08c379a00000000000000000000000000000000000000000000000000000000081526004016125bd90613c9e565b60405180910390fd5b600360048111156125da576125d9613bb7565b5b8160048111156125ed576125ec613bb7565b5b141561262e576040517f08c379a000000000000000000000000000000000000000000000000000000000815260040161262590613d30565b60405180910390fd5b60048081111561264157612640613bb7565b5b81600481111561265457612653613bb7565b5b1415612695576040517f08c379a000000000000000000000000000000000000000000000000000000000815260040161268c90613dc2565b60405180910390fd5b5b50565b600073ffffffffffffffffffffffffffffffffffffffff82169050919050565b60006126c482612699565b9050919050565b6126d4816126b9565b82525050565b6000819050919050565b6126ed816126da565b82525050565b600060408201905061270860008301856126cb565b61271560208301846126e4565b9392505050565b600080fd5b60007fffffffff0000000000000000000000000000000000000000000000000000000082169050919050565b61275681612721565b811461276157600080fd5b50565b6000813590506127738161274d565b92915050565b60006020828403121561278f5761278e61271c565b5b600061279d84828501612764565b91505092915050565b60008115159050919050565b6127bb816127a6565b82525050565b60006020820190506127d660008301846127b2565b92915050565b600081519050919050565b600082825260208201905092915050565b60005b838110156128165780820151818401526020810190506127fb565b83811115612825576000848401525b50505050565b6000601f19601f8301169050919050565b6000612847826127dc565b61285181856127e7565b93506128618185602086016127f8565b61286a8161282b565b840191505092915050565b6000602082019050818103600083015261288f818461283c565b905092915050565b6128a0816126b9565b81146128ab57600080fd5b50565b6000813590506128bd81612897565b92915050565b6128cc816126da565b81146128d757600080fd5b50565b6000813590506128e9816128c3565b92915050565b600080604083850312156129065761290561271c565b5b6000612914858286016128ae565b9250506020612925858286016128da565b9150509250929050565b600060208201905061294460008301846126e4565b92915050565b6000806000606084860312156129635761296261271c565b5b6000612971868287016128ae565b9350506020612982868287016128ae565b9250506040612993868287016128da565b9150509250925092565b6000819050919050565b6129b08161299d565b81146129bb57600080fd5b50565b6000813590506129cd816129a7565b92915050565b6000602082840312156129e9576129e861271c565b5b60006129f7848285016129be565b91505092915050565b612a098161299d565b82525050565b6000602082019050612a246000830184612a00565b92915050565b60008060408385031215612a4157612a4061271c565b5b6000612a4f858286016129be565b9250506020612a60858286016128ae565b9150509250929050565b600060ff82169050919050565b612a8081612a6a565b82525050565b6000602082019050612a9b6000830184612a77565b92915050565b600060208284031215612ab757612ab661271c565b5b6000612ac5848285016128da565b91505092915050565b600060208284031215612ae457612ae361271c565b5b6000612af2848285016128ae565b91505092915050565b6000612b0682612699565b9050919050565b612b1681612afb565b8114612b2157600080fd5b50565b600081359050612b3381612b0d565b92915050565b60008060408385031215612b5057612b4f61271c565b5b6000612b5e85828601612b24565b9250506020612b6f858286016128da565b9150509250929050565b612b8281612a6a565b8114612b8d57600080fd5b50565b600081359050612b9f81612b79565b92915050565b600080600080600080600060e0888a031215612bc457612bc361271c565b5b6000612bd28a828b016128ae565b9750506020612be38a828b016128ae565b9650506040612bf48a828b016128da565b9550506060612c058a828b016128da565b9450506080612c168a828b01612b90565b93505060a0612c278a828b016129be565b92505060c0612c388a828b016129be565b91505092959891949750929550565b60008060408385031215612c5e57612c5d61271c565b5b6000612c6c858286016128ae565b9250506020612c7d858286016128ae565b9150509250929050565b7f4e487b7100000000000000000000000000000000000000000000000000000000600052602260045260246000fd5b60006002820490506001821680612cce57607f821691505b60208210811415612ce257612ce1612c87565b5b50919050565b7f416363657373436f6e74726f6c3a2063616e206f6e6c792072656e6f756e636560008201527f20726f6c657320666f722073656c660000000000000000000000000000000000602082015250565b6000612d44602f836127e7565b9150612d4f82612ce8565b604082019050919050565b60006020820190508181036000830152612d7381612d37565b9050919050565b7f4e487b7100000000000000000000000000000000000000000000000000000000600052601160045260246000fd5b6000612db4826126da565b9150612dbf836126da565b9250827fffffffffffffffffffffffffffffffffffffffffffffffffffffffffffffffff03821115612df457612df3612d7a565b5b828201905092915050565b600081905092915050565b7f4d494e5445525f524f4c45000000000000000000000000000000000000000000600082015250565b6000612e40600b83612dff565b9150612e4b82612e0a565b600b82019050919050565b6000612e6182612e33565b9150819050919050565b7f616464726573732030206e6f7420616c6c6f77656420746f2063616c6c3b0000600082015250565b6000612ea1601e836127e7565b9150612eac82612e6b565b602082019050919050565b60006020820190508181036000830152612ed081612e94565b9050919050565b7f696e73756666696369656e7420746f6b656e7300000000000000000000000000600082015250565b6000612f0d6013836127e7565b9150612f1882612ed7565b602082019050919050565b60006020820190508181036000830152612f3c81612f00565b9050919050565b600081905092915050565b50565b6000612f5e600083612f43565b9150612f6982612f4e565b600082019050919050565b6000612f7f82612f51565b9150819050919050565b7f7769746864726177206661696c65640000000000000000000000000000000000600082015250565b6000612fbf600f836127e7565b9150612fca82612f89565b602082019050919050565b60006020820190508181036000830152612fee81612fb2565b9050919050565b7f45524332303a2064656372656173656420616c6c6f77616e63652062656c6f7760008201527f207a65726f000000000000000000000000000000000000000000000000000000602082015250565b60006130516025836127e7565b915061305c82612ff5565b604082019050919050565b6000602082019050818103600083015261308081613044565b9050919050565b7f4661696c656420746f2073656e64204574686572000000000000000000000000600082015250565b60006130bd6014836127e7565b91506130c882613087565b602082019050919050565b600060208201905081810360008301526130ec816130b0565b9050919050565b6000819050919050565b600061311861311361310e84612699565b6130f3565b612699565b9050919050565b600061312a826130fd565b9050919050565b600061313c8261311f565b9050919050565b61314c81613131565b82525050565b60006040820190506131676000830185613143565b61317460208301846126e4565b9392505050565b7f45524332305065726d69743a206578706972656420646561646c696e65000000600082015250565b60006131b1601d836127e7565b91506131bc8261317b565b602082019050919050565b600060208201905081810360008301526131e0816131a4565b9050919050565b600060c0820190506131fc6000830189612a00565b61320960208301886126cb565b61321660408301876126cb565b61322360608301866126e4565b61323060808301856126e4565b61323d60a08301846126e4565b979650505050505050565b7f45524332305065726d69743a20696e76616c6964207369676e61747572650000600082015250565b600061327e601e836127e7565b915061328982613248565b602082019050919050565b600060208201905081810360008301526132ad81613271565b9050919050565b7f63616e6e6f742062652030206164647265737300000000000000000000000000600082015250565b60006132ea6013836127e7565b91506132f5826132b4565b602082019050919050565b60006020820190508181036000830152613319816132dd565b9050919050565b7f45524332303a20617070726f76652066726f6d20746865207a65726f2061646460008201527f7265737300000000000000000000000000000000000000000000000000000000602082015250565b600061337c6024836127e7565b915061338782613320565b604082019050919050565b600060208201905081810360008301526133ab8161336f565b9050919050565b7f45524332303a20617070726f766520746f20746865207a65726f20616464726560008201527f7373000000000000000000000000000000000000000000000000000000000000602082015250565b600061340e6022836127e7565b9150613419826133b2565b604082019050919050565b6000602082019050818103600083015261343d81613401565b9050919050565b7f45524332303a20696e73756666696369656e7420616c6c6f77616e6365000000600082015250565b600061347a601d836127e7565b915061348582613444565b602082019050919050565b600060208201905081810360008301526134a98161346d565b9050919050565b7f45524332303a207472616e736665722066726f6d20746865207a65726f20616460008201527f6472657373000000000000000000000000000000000000000000000000000000602082015250565b600061350c6025836127e7565b9150613517826134b0565b604082019050919050565b6000602082019050818103600083015261353b816134ff565b9050919050565b7f45524332303a207472616e7366657220746f20746865207a65726f206164647260008201527f6573730000000000000000000000000000000000000000000000000000000000602082015250565b600061359e6023836127e7565b91506135a982613542565b604082019050919050565b600060208201905081810360008301526135cd81613591565b9050919050565b7f45524332303a207472616e7366657220616d6f756e742065786365656473206260008201527f616c616e63650000000000000000000000000000000000000000000000000000602082015250565b60006136306026836127e7565b915061363b826135d4565b604082019050919050565b6000602082019050818103600083015261365f81613623565b9050919050565b7f416363657373436f6e74726f6c3a206163636f756e7420000000000000000000600082015250565b600061369c601783612dff565b91506136a782613666565b601782019050919050565b60006136bd826127dc565b6136c78185612dff565b93506136d78185602086016127f8565b80840191505092915050565b7f206973206d697373696e6720726f6c6520000000000000000000000000000000600082015250565b6000613719601183612dff565b9150613724826136e3565b601182019050919050565b600061373a8261368f565b915061374682856136b2565b91506137518261370c565b915061375d82846136b2565b91508190509392505050565b7f45524332303a206d696e7420746f20746865207a65726f206164647265737300600082015250565b600061379f601f836127e7565b91506137aa82613769565b602082019050919050565b600060208201905081810360008301526137ce81613792565b9050919050565b7f45524332303a206275726e2066726f6d20746865207a65726f2061646472657360008201527f7300000000000000000000000000000000000000000000000000000000000000602082015250565b60006138316021836127e7565b915061383c826137d5565b604082019050919050565b6000602082019050818103600083015261386081613824565b9050919050565b7f45524332303a206275726e20616d6f756e7420657863656564732062616c616e60008201527f6365000000000000000000000000000000000000000000000000000000000000602082015250565b60006138c36022836127e7565b91506138ce82613867565b604082019050919050565b600060208201905081810360008301526138f2816138b6565b9050919050565b6000613904826126da565b915061390f836126da565b92508282101561392257613921612d7a565b5b828203905092915050565b6000613938826126da565b9150613943836126da565b9250817fffffffffffffffffffffffffffffffffffffffffffffffffffffffffffffffff048311821515161561397c5761397b612d7a565b5b828202905092915050565b7f4e487b7100000000000000000000000000000000000000000000000000000000600052604160045260246000fd5b7f4e487b7100000000000000000000000000000000000000000000000000000000600052603260045260246000fd5b60006139f0826126da565b91506000821415613a0457613a03612d7a565b5b600182039050919050565b7f537472696e67733a20686578206c656e67746820696e73756666696369656e74600082015250565b6000613a456020836127e7565b9150613a5082613a0f565b602082019050919050565b60006020820190508181036000830152613a7481613a38565b9050919050565b600060a082019050613a906000830188612a00565b613a9d6020830187612a00565b613aaa6040830186612a00565b613ab760608301856126e4565b613ac460808301846126cb565b9695505050505050565b7f1901000000000000000000000000000000000000000000000000000000000000600082015250565b6000613b04600283612dff565b9150613b0f82613ace565b600282019050919050565b6000819050919050565b613b35613b308261299d565b613b1a565b82525050565b6000613b4682613af7565b9150613b528285613b24565b602082019150613b628284613b24565b6020820191508190509392505050565b6000608082019050613b876000830187612a00565b613b946020830186612a77565b613ba16040830185612a00565b613bae6060830184612a00565b95945050505050565b7f4e487b7100000000000000000000000000000000000000000000000000000000600052602160045260246000fd5b7f45434453413a20696e76616c6964207369676e61747572650000000000000000600082015250565b6000613c1c6018836127e7565b9150613c2782613be6565b602082019050919050565b60006020820190508181036000830152613c4b81613c0f565b9050919050565b7f45434453413a20696e76616c6964207369676e6174757265206c656e67746800600082015250565b6000613c88601f836127e7565b9150613c9382613c52565b602082019050919050565b60006020820190508181036000830152613cb781613c7b565b9050919050565b7f45434453413a20696e76616c6964207369676e6174757265202773272076616c60008201527f7565000000000000000000000000000000000000000000000000000000000000602082015250565b6000613d1a6022836127e7565b9150613d2582613cbe565b604082019050919050565b60006020820190508181036000830152613d4981613d0d565b9050919050565b7f45434453413a20696e76616c6964207369676e6174757265202776272076616c60008201527f7565000000000000000000000000000000000000000000000000000000000000602082015250565b6000613dac6022836127e7565b9150613db782613d50565b604082019050919050565b60006020820190508181036000830152613ddb81613d9f565b905091905056fea26469706673582212207aff06ba76a5e2cde4bf3df93cdb85177bf3de88243136b163d37b62d8ddd1ae64736f6c634300080a0033",
  "immutableReferences": {
    "1162": [
      {
        "length": 32,
        "start": 7053
      }
    ],
    "1164": [
      {
        "length": 32,
        "start": 7012
      }
    ],
    "1166": [
      {
        "length": 32,
        "start": 6926
      }
    ],
    "1168": [
      {
        "length": 32,
        "start": 7129
      }
    ],
    "1170": [
      {
        "length": 32,
        "start": 7162
      }
    ],
    "1172": [
      {
        "length": 32,
        "start": 7096
      }
    ],
    "2047": [
      {
        "length": 32,
        "start": 4575
      }
    ]
  },
  "source": "// SPDX-License-Identifier: Legi\r\npragma solidity >=0.8.2;\r\nimport \"./all.sol\";\r\n\r\ncontract Legi is ERC20, ERC20Burnable, AccessControl, ERC20Permit {\r\n    bytes32 public constant MINTER_ROLE = keccak256(abi.encodePacked(\"MINTER_ROLE\"));\r\n    bytes32 public constant BURNER_ROLE = keccak256(\"BURNER_ROLE\");\r\n    bytes32 public constant WITHDRAWER_ROLE = keccak256(\"WITHDRAWER_ROLE\");\r\n    event Received(address, uint);\r\n    event withdrawn(address, uint);\r\n    event sentContractEth(address, uint);\r\n    event fallbackReceived(address, uint);\r\n\r\n    constructor(string memory dname, string memory symb) ERC20(dname, symb) ERC20Permit(dname) {\r\n        _mint(msg.sender, 69000000 * 10 ** 24);\r\n        _grantRole(DEFAULT_ADMIN_ROLE, msg.sender);\r\n        _grantRole(MINTER_ROLE, msg.sender);\r\n        _grantRole(BURNER_ROLE, msg.sender);\r\n        _grantRole(WITHDRAWER_ROLE, msg.sender);\r\n    }\r\n\r\n    function mint(address to, uint256 amount) public onlyRole(MINTER_ROLE) {\r\n        unchecked{\r\n            _mint(to, amount);\r\n        }\r\n    }\r\n\r\n    function getEtherBalance(address _checkBal) public view returns(uint256){\r\n        require(_checkBal != address(0),'cannot be 0 address');\r\n        return _checkBal.balance;\r\n    }\r\n\r\n    function contractEthBalance() public view returns(uint){\r\n        require(msg.sender != address(0), 'address 0 not allowed to call;');\r\n        return address(this).balance;\r\n    }\r\n\r\n    function sendEther(address payable _to, uint amount) public onlyRole(WITHDRAWER_ROLE) {\r\n        (bool sent,) = _to.call{value: amount}(\"\");\r\n        require(sent, \"Failed to send Ether\");\r\n        emit sentContractEth(_to, amount);\r\n    }\r\n\r\n    function withdrawEther() public onlyRole(WITHDRAWER_ROLE) {\r\n        uint256 ownerBalance = address(this).balance;\r\n        require(ownerBalance > 0, \"insufficient tokens\");\r\n        (bool sent,) = msg.sender.call{value: address(this).balance}(\"\");\r\n        require(sent, \"withdraw failed\");\r\n        emit withdrawn(msg.sender, ownerBalance);\r\n    }\r\n\r\n    fallback() external payable {\r\n        emit fallbackReceived(msg.sender, msg.value);\r\n    }\r\n\r\n    receive() external payable {\r\n        emit Received(msg.sender, msg.value);\r\n    }\r\n}\r\n",
  "sourcePath": "C:\\Users\\JasonLegi\\Desktop\\yaad\\contracts\\legi.sol",
  "compiler": {
    "name": "solc",
    "version": "0.8.10+commit.fc410830.Emscripten.clang"
  },
  "schemaVersion": "3.4.4",
  "updatedAt": "2022-03-17T12:12:50.004Z",
  "devdoc": {
    "kind": "dev",
    "methods": {
      "DOMAIN_SEPARATOR()": {
        "details": "See {IERC20Permit-DOMAIN_SEPARATOR}."
      },
      "allowance(address,address)": {
        "details": "See {IERC20-allowance}."
      },
      "approve(address,uint256)": {
        "details": "See {IERC20-approve}. NOTE: If `amount` is the maximum `uint256`, the allowance is not updated on `transferFrom`. This is semantically equivalent to an infinite approval. Requirements: - `spender` cannot be the zero address."
      },
      "balanceOf(address)": {
        "details": "See {IERC20-balanceOf}."
      },
      "burn(uint256)": {
        "details": "Destroys `amount` tokens from the caller. See {ERC20-_burn}."
      },
      "burnFrom(address,uint256)": {
        "details": "Destroys `amount` tokens from `account`, deducting from the caller's allowance. See {ERC20-_burn} and {ERC20-allowance}. Requirements: - the caller must have allowance for ``accounts``'s tokens of at least `amount`."
      },
      "decimals()": {
        "details": "Returns the number of decimals used to get its user representation. For example, if `decimals` equals `2`, a balance of `505` tokens should be displayed to a user as `5.05` (`505 / 10 ** 2`). Tokens usually opt for a value of 18, imitating the relationship between Ether and Wei. This is the value {ERC20} uses, unless this function is overridden; NOTE: This information is only used for _display_ purposes: it in no way affects any of the arithmetic of the contract, including {IERC20-balanceOf} and {IERC20-transfer}."
      },
      "decreaseAllowance(address,uint256)": {
        "details": "Atomically decreases the allowance granted to `spender` by the caller. This is an alternative to {approve} that can be used as a mitigation for problems described in {IERC20-approve}. Emits an {Approval} event indicating the updated allowance. Requirements: - `spender` cannot be the zero address. - `spender` must have allowance for the caller of at least `subtractedValue`."
      },
      "getRoleAdmin(bytes32)": {
        "details": "Returns the admin role that controls `role`. See {grantRole} and {revokeRole}. To change a role's admin, use {_setRoleAdmin}."
      },
      "grantRole(bytes32,address)": {
        "details": "Grants `role` to `account`. If `account` had not been already granted `role`, emits a {RoleGranted} event. Requirements: - the caller must have ``role``'s admin role."
      },
      "hasRole(bytes32,address)": {
        "details": "Returns `true` if `account` has been granted `role`."
      },
      "increaseAllowance(address,uint256)": {
        "details": "Atomically increases the allowance granted to `spender` by the caller. This is an alternative to {approve} that can be used as a mitigation for problems described in {IERC20-approve}. Emits an {Approval} event indicating the updated allowance. Requirements: - `spender` cannot be the zero address."
      },
      "name()": {
        "details": "Returns the name of the token."
      },
      "nonces(address)": {
        "details": "See {IERC20Permit-nonces}."
      },
      "permit(address,address,uint256,uint256,uint8,bytes32,bytes32)": {
        "details": "See {IERC20Permit-permit}."
      },
      "renounceRole(bytes32,address)": {
        "details": "Revokes `role` from the calling account. Roles are often managed via {grantRole} and {revokeRole}: this function's purpose is to provide a mechanism for accounts to lose their privileges if they are compromised (such as when a trusted device is misplaced). If the calling account had been revoked `role`, emits a {RoleRevoked} event. Requirements: - the caller must be `account`."
      },
      "revokeRole(bytes32,address)": {
        "details": "Revokes `role` from `account`. If `account` had been granted `role`, emits a {RoleRevoked} event. Requirements: - the caller must have ``role``'s admin role."
      },
      "supportsInterface(bytes4)": {
        "details": "See {IERC165-supportsInterface}."
      },
      "symbol()": {
        "details": "Returns the symbol of the token, usually a shorter version of the name."
      },
      "totalSupply()": {
        "details": "See {IERC20-totalSupply}."
      },
      "transfer(address,uint256)": {
        "details": "See {IERC20-transfer}. Requirements: - `to` cannot be the zero address. - the caller must have a balance of at least `amount`."
      },
      "transferFrom(address,address,uint256)": {
        "details": "See {IERC20-transferFrom}. Emits an {Approval} event indicating the updated allowance. This is not required by the EIP. See the note at the beginning of {ERC20}. NOTE: Does not update the allowance if the current allowance is the maximum `uint256`. Requirements: - `from` and `to` cannot be the zero address. - `from` must have a balance of at least `amount`. - the caller must have allowance for ``from``'s tokens of at least `amount`."
      }
    },
    "version": 1
  },
  "userdoc": {
    "kind": "user",
    "methods": {},
    "version": 1
  }
}